{
  "contractName": "OrderExecutor",
  "abi": [
    {
      "inputs": [
        {
          "internalType": "address",
          "name": "_ops",
          "type": "address"
        },
        {
          "internalType": "address",
          "name": "_taskCreator",
          "type": "address"
        },
        {
          "internalType": "address",
          "name": "_swapRouter",
          "type": "address"
        },
        {
          "internalType": "address payable",
          "name": "_tellorAddress",
          "type": "address"
        }
      ],
      "stateMutability": "nonpayable",
      "type": "constructor"
    },
    {
      "anonymous": false,
      "inputs": [
        {
          "indexed": false,
          "internalType": "string",
          "name": "",
          "type": "string"
        },
        {
          "indexed": false,
          "internalType": "uint256",
          "name": "",
          "type": "uint256"
        }
      ],
      "name": "OrderDone",
      "type": "event"
    },
    {
      "inputs": [],
      "name": "dedicatedMsgSender",
      "outputs": [
        {
          "internalType": "address",
          "name": "",
          "type": "address"
        }
      ],
      "stateMutability": "view",
      "type": "function",
      "constant": true
    },
    {
      "inputs": [
        {
          "internalType": "bytes32",
          "name": "_queryId",
          "type": "bytes32"
        },
        {
          "internalType": "uint256",
          "name": "_timestamp",
          "type": "uint256"
        }
      ],
      "name": "getDataAfter",
      "outputs": [
        {
          "internalType": "bytes",
          "name": "_value",
          "type": "bytes"
        },
        {
          "internalType": "uint256",
          "name": "_timestampRetrieved",
          "type": "uint256"
        }
      ],
      "stateMutability": "view",
      "type": "function",
      "constant": true
    },
    {
      "inputs": [
        {
          "internalType": "bytes32",
          "name": "_queryId",
          "type": "bytes32"
        },
        {
          "internalType": "uint256",
          "name": "_timestamp",
          "type": "uint256"
        }
      ],
      "name": "getDataBefore",
      "outputs": [
        {
          "internalType": "bytes",
          "name": "_value",
          "type": "bytes"
        },
        {
          "internalType": "uint256",
          "name": "_timestampRetrieved",
          "type": "uint256"
        }
      ],
      "stateMutability": "view",
      "type": "function",
      "constant": true
    },
    {
      "inputs": [
        {
          "internalType": "bytes32",
          "name": "_queryId",
          "type": "bytes32"
        },
        {
          "internalType": "uint256",
          "name": "_timestamp",
          "type": "uint256"
        }
      ],
      "name": "getIndexForDataAfter",
      "outputs": [
        {
          "internalType": "bool",
          "name": "_found",
          "type": "bool"
        },
        {
          "internalType": "uint256",
          "name": "_index",
          "type": "uint256"
        }
      ],
      "stateMutability": "view",
      "type": "function",
      "constant": true
    },
    {
      "inputs": [
        {
          "internalType": "bytes32",
          "name": "_queryId",
          "type": "bytes32"
        },
        {
          "internalType": "uint256",
          "name": "_timestamp",
          "type": "uint256"
        }
      ],
      "name": "getIndexForDataBefore",
      "outputs": [
        {
          "internalType": "bool",
          "name": "_found",
          "type": "bool"
        },
        {
          "internalType": "uint256",
          "name": "_index",
          "type": "uint256"
        }
      ],
      "stateMutability": "view",
      "type": "function",
      "constant": true
    },
    {
      "inputs": [
        {
          "internalType": "bytes32",
          "name": "_queryId",
          "type": "bytes32"
        },
        {
          "internalType": "uint256",
          "name": "_timestamp",
          "type": "uint256"
        },
        {
          "internalType": "uint256",
          "name": "_maxAge",
          "type": "uint256"
        },
        {
          "internalType": "uint256",
          "name": "_maxCount",
          "type": "uint256"
        }
      ],
      "name": "getMultipleValuesBefore",
      "outputs": [
        {
          "internalType": "bytes[]",
          "name": "_values",
          "type": "bytes[]"
        },
        {
          "internalType": "uint256[]",
          "name": "_timestamps",
          "type": "uint256[]"
        }
      ],
      "stateMutability": "view",
      "type": "function",
      "constant": true
    },
    {
      "inputs": [
        {
          "internalType": "bytes32",
          "name": "_queryId",
          "type": "bytes32"
        }
      ],
      "name": "getNewValueCountbyQueryId",
      "outputs": [
        {
          "internalType": "uint256",
          "name": "",
          "type": "uint256"
        }
      ],
      "stateMutability": "view",
      "type": "function",
      "constant": true
    },
    {
      "inputs": [
        {
          "internalType": "bytes32",
          "name": "_queryId",
          "type": "bytes32"
        },
        {
          "internalType": "uint256",
          "name": "_timestamp",
          "type": "uint256"
        }
      ],
      "name": "getReporterByTimestamp",
      "outputs": [
        {
          "internalType": "address",
          "name": "",
          "type": "address"
        }
      ],
      "stateMutability": "view",
      "type": "function",
      "constant": true
    },
    {
      "inputs": [
        {
          "internalType": "bytes32",
          "name": "_queryId",
          "type": "bytes32"
        },
        {
          "internalType": "uint256",
          "name": "_index",
          "type": "uint256"
        }
      ],
      "name": "getTimestampbyQueryIdandIndex",
      "outputs": [
        {
          "internalType": "uint256",
          "name": "",
          "type": "uint256"
        }
      ],
      "stateMutability": "view",
      "type": "function",
      "constant": true
    },
    {
      "inputs": [],
      "name": "idMappingContract",
      "outputs": [
        {
          "internalType": "contract IMappingContract",
          "name": "",
          "type": "address"
        }
      ],
      "stateMutability": "view",
      "type": "function",
      "constant": true
    },
    {
      "inputs": [
        {
          "internalType": "bytes32",
          "name": "_queryId",
          "type": "bytes32"
        },
        {
          "internalType": "uint256",
          "name": "_timestamp",
          "type": "uint256"
        }
      ],
      "name": "isInDispute",
      "outputs": [
        {
          "internalType": "bool",
          "name": "",
          "type": "bool"
        }
      ],
      "stateMutability": "view",
      "type": "function",
      "constant": true
    },
    {
      "inputs": [],
      "name": "ops",
      "outputs": [
        {
          "internalType": "contract IOps",
          "name": "",
          "type": "address"
        }
      ],
      "stateMutability": "view",
      "type": "function",
      "constant": true
    },
    {
      "inputs": [],
      "name": "price",
      "outputs": [
        {
          "internalType": "uint256",
          "name": "",
          "type": "uint256"
        }
      ],
      "stateMutability": "view",
      "type": "function",
      "constant": true
    },
    {
      "inputs": [
        {
          "internalType": "bytes32",
          "name": "_queryId",
          "type": "bytes32"
        },
        {
          "internalType": "uint256",
          "name": "_timestamp",
          "type": "uint256"
        }
      ],
      "name": "retrieveData",
      "outputs": [
        {
          "internalType": "bytes",
          "name": "",
          "type": "bytes"
        }
      ],
      "stateMutability": "view",
      "type": "function",
      "constant": true
    },
    {
      "inputs": [
        {
          "internalType": "address",
          "name": "_addy",
          "type": "address"
        }
      ],
      "name": "setIdMappingContract",
      "outputs": [],
      "stateMutability": "nonpayable",
      "type": "function"
    },
    {
      "inputs": [],
      "name": "tellor",
      "outputs": [
        {
          "internalType": "contract ITellor",
          "name": "",
          "type": "address"
        }
      ],
      "stateMutability": "view",
      "type": "function",
      "constant": true
    },
    {
      "inputs": [
        {
          "internalType": "bytes32",
          "name": "_id",
          "type": "bytes32"
        }
      ],
      "name": "valueFor",
      "outputs": [
        {
          "internalType": "int256",
          "name": "_value",
          "type": "int256"
        },
        {
          "internalType": "uint256",
          "name": "_timestamp",
          "type": "uint256"
        },
        {
          "internalType": "uint256",
          "name": "_statusCode",
          "type": "uint256"
        }
      ],
      "stateMutability": "view",
      "type": "function",
      "constant": true
    },
    {
      "stateMutability": "payable",
      "type": "receive",
      "payable": true
    },
    {
      "inputs": [
        {
          "internalType": "uint256",
          "name": "_price",
          "type": "uint256"
        }
      ],
      "name": "setPrice",
      "outputs": [],
      "stateMutability": "nonpayable",
      "type": "function"
    },
    {
      "inputs": [
        {
          "internalType": "address",
          "name": "_lendingVault",
          "type": "address"
        }
      ],
      "name": "setLendingVault",
      "outputs": [],
      "stateMutability": "nonpayable",
      "type": "function"
    },
    {
      "inputs": [
        {
          "internalType": "uint256",
          "name": "orderNonce",
          "type": "uint256"
        }
      ],
      "name": "executeOrder",
      "outputs": [],
      "stateMutability": "nonpayable",
      "type": "function"
    },
    {
      "inputs": [
        {
          "internalType": "uint256",
          "name": "orderNonce",
          "type": "uint256"
        }
      ],
      "name": "checker",
      "outputs": [
        {
          "internalType": "bool",
          "name": "canExec",
          "type": "bool"
        },
        {
          "internalType": "bytes",
          "name": "execPayload",
          "type": "bytes"
        }
      ],
      "stateMutability": "view",
      "type": "function",
      "constant": true
    },
    {
      "inputs": [],
      "name": "withdraw",
      "outputs": [],
      "stateMutability": "nonpayable",
      "type": "function"
    }
  ],
  "bytecode": "0x6101206040523480156200001257600080fd5b5060405162003b7138038062003b71833981810160405281019062000038919062000389565b8084848173ffffffffffffffffffffffffffffffffffffffff1660808173ffffffffffffffffffffffffffffffffffffffff16815250508173ffffffffffffffffffffffffffffffffffffffff1663573ea5756040518163ffffffff1660e01b8152600401602060405180830381865afa158015620000bb573d6000803e3d6000fd5b505050506040513d601f19601f82011682018060405250810190620000e19190620003fb565b73ffffffffffffffffffffffffffffffffffffffff1660c08173ffffffffffffffffffffffffffffffffffffffff168152505073c815db16d4be6ddf2685c201937905abf338f5d773ffffffffffffffffffffffffffffffffffffffff1663ded89a7c826040518263ffffffff1660e01b81526004016200016391906200043e565b6040805180830381865afa15801562000180573d6000803e3d6000fd5b505050506040513d601f19601f82011682018060405250810190620001a6919062000498565b508073ffffffffffffffffffffffffffffffffffffffff1660a09073ffffffffffffffffffffffffffffffffffffffff16815250505050806000806101000a81548173ffffffffffffffffffffffffffffffffffffffff021916908373ffffffffffffffffffffffffffffffffffffffff16021790555050606460028190555033600360006101000a81548173ffffffffffffffffffffffffffffffffffffffff021916908373ffffffffffffffffffffffffffffffffffffffff1602179055508273ffffffffffffffffffffffffffffffffffffffff1660e08173ffffffffffffffffffffffffffffffffffffffff16815250508173ffffffffffffffffffffffffffffffffffffffff166101008173ffffffffffffffffffffffffffffffffffffffff168152505050505050620004df565b600080fd5b600073ffffffffffffffffffffffffffffffffffffffff82169050919050565b60006200030c82620002df565b9050919050565b6200031e81620002ff565b81146200032a57600080fd5b50565b6000815190506200033e8162000313565b92915050565b60006200035182620002df565b9050919050565b620003638162000344565b81146200036f57600080fd5b50565b600081519050620003838162000358565b92915050565b60008060008060808587031215620003a657620003a5620002da565b5b6000620003b6878288016200032d565b9450506020620003c9878288016200032d565b9350506040620003dc878288016200032d565b9250506060620003ef8782880162000372565b91505092959194509250565b600060208284031215620004145762000413620002da565b5b6000620004248482850162000372565b91505092915050565b6200043881620002ff565b82525050565b60006020820190506200045560008301846200042d565b92915050565b60008115159050919050565b62000472816200045b565b81146200047e57600080fd5b50565b600081519050620004928162000467565b92915050565b60008060408385031215620004b257620004b1620002da565b5b6000620004c2858286016200032d565b9250506020620004d58582860162000481565b9150509250929050565b60805160a05160c05160e051610100516136076200056a60003960008181610eed01526111f5015260008181610b6601528181610d3201528181610e3301528181610f8d015281816110460152818161110c0152611292015260008181611de20152611eb60152600081816106800152610c6401526000818161161c0152611cff01526136076000f3fe6080604052600436106101395760003560e01c806394e05b2c116100ab578063ce5e11bf1161006f578063ce5e11bf1461045b578063e07c548614610498578063e70abe92146104d5578063f66f49c314610500578063f78eea831461053e578063fcd4a5461461057d57610140565b806394e05b2c1461034e57806394f611341461038c578063a035b1fe146103b5578063a792765f146103e0578063c5958af91461041e57610140565b80633ccfd60b116100fd5780633ccfd60b1461022d578063408a03d81461024457806344e87f911461026d57806364ee3c6d146102aa57806377b03e0d146102e857806391b7f5ed1461032557610140565b8063193b505b146101455780631959ad5b1461016e57806328f150eb1461019957806329449085146101c45780632af8aae01461020257610140565b3661014057005b600080fd5b34801561015157600080fd5b5061016c600480360381019061016791906122d4565b6105bb565b005b34801561017a57600080fd5b5061018361065a565b6040516101909190612360565b60405180910390f35b3480156101a557600080fd5b506101ae61067e565b6040516101bb919061238a565b60405180910390f35b3480156101d057600080fd5b506101eb60048036038101906101e69190612411565b6106a2565b6040516101f992919061247b565b60405180910390f35b34801561020e57600080fd5b5061021761074b565b60405161022491906124c5565b60405180910390f35b34801561023957600080fd5b50610242610771565b005b34801561025057600080fd5b5061026b600480360381019061026691906122d4565b61084a565b005b34801561027957600080fd5b50610294600480360381019061028f9190612411565b61091e565b6040516102a191906124e0565b60405180910390f35b3480156102b657600080fd5b506102d160048036038101906102cc9190612411565b6109c5565b6040516102df92919061258b565b60405180910390f35b3480156102f457600080fd5b5061030f600480360381019061030a91906125bb565b610a1f565b60405161031c91906125e8565b60405180910390f35b34801561033157600080fd5b5061034c60048036038101906103479190612603565b610ac3565b005b34801561035a57600080fd5b5061037560048036038101906103709190612603565b610b5d565b604051610383929190612630565b60405180910390f35b34801561039857600080fd5b506103b360048036038101906103ae9190612603565b610c62565b005b3480156103c157600080fd5b506103ca611363565b6040516103d791906125e8565b60405180910390f35b3480156103ec57600080fd5b5061040760048036038101906104029190612411565b611369565b60405161041592919061258b565b60405180910390f35b34801561042a57600080fd5b5061044560048036038101906104409190612411565b611421565b6040516104529190612660565b60405180910390f35b34801561046757600080fd5b50610482600480360381019061047d9190612411565b6114cc565b60405161048f91906125e8565b60405180910390f35b3480156104a457600080fd5b506104bf60048036038101906104ba9190612411565b611573565b6040516104cc919061238a565b60405180910390f35b3480156104e157600080fd5b506104ea61161a565b6040516104f791906126a3565b60405180910390f35b34801561050c57600080fd5b5061052760048036038101906105229190612411565b61163e565b60405161053592919061247b565b60405180910390f35b34801561054a57600080fd5b50610565600480360381019061056091906125bb565b611822565b604051610574939291906126d7565b60405180910390f35b34801561058957600080fd5b506105a4600480360381019061059f919061270e565b611926565b6040516105b292919061293f565b60405180910390f35b600073ffffffffffffffffffffffffffffffffffffffff16600160009054906101000a900473ffffffffffffffffffffffffffffffffffffffff1673ffffffffffffffffffffffffffffffffffffffff161461061657600080fd5b80600160006101000a81548173ffffffffffffffffffffffffffffffffffffffff021916908373ffffffffffffffffffffffffffffffffffffffff16021790555050565b60008054906101000a900473ffffffffffffffffffffffffffffffffffffffff1681565b7f000000000000000000000000000000000000000000000000000000000000000081565b60008060008054906101000a900473ffffffffffffffffffffffffffffffffffffffff1673ffffffffffffffffffffffffffffffffffffffff16632944908585856040518363ffffffff1660e01b8152600401610700929190612985565b6040805180830381865afa15801561071c573d6000803e3d6000fd5b505050506040513d601f19601f8201168201806040525081019061074091906129ef565b915091509250929050565b600160009054906101000a900473ffffffffffffffffffffffffffffffffffffffff1681565b600360009054906101000a900473ffffffffffffffffffffffffffffffffffffffff1673ffffffffffffffffffffffffffffffffffffffff163373ffffffffffffffffffffffffffffffffffffffff1614610801576040517f08c379a00000000000000000000000000000000000000000000000000000000081526004016107f890612a8c565b60405180910390fd5b3373ffffffffffffffffffffffffffffffffffffffff166108fc479081150290604051600060405180830381858888f19350505050158015610847573d6000803e3d6000fd5b50565b600360009054906101000a900473ffffffffffffffffffffffffffffffffffffffff1673ffffffffffffffffffffffffffffffffffffffff163373ffffffffffffffffffffffffffffffffffffffff16146108da576040517f08c379a00000000000000000000000000000000000000000000000000000000081526004016108d190612a8c565b60405180910390fd5b80600460006101000a81548173ffffffffffffffffffffffffffffffffffffffff021916908373ffffffffffffffffffffffffffffffffffffffff16021790555050565b60008060009054906101000a900473ffffffffffffffffffffffffffffffffffffffff1673ffffffffffffffffffffffffffffffffffffffff166344e87f9184846040518363ffffffff1660e01b815260040161097c929190612985565b602060405180830381865afa158015610999573d6000803e3d6000fd5b505050506040513d601f19601f820116820180604052508101906109bd9190612aac565b905092915050565b606060008060006109d6868661163e565b91509150816109fd5760006040518060200160405280600081525090935093505050610a18565b610a0786826114cc565b9250610a138684611421565b935050505b9250929050565b60008060009054906101000a900473ffffffffffffffffffffffffffffffffffffffff1673ffffffffffffffffffffffffffffffffffffffff166377b03e0d836040518263ffffffff1660e01b8152600401610a7b9190612ad9565b602060405180830381865afa158015610a98573d6000803e3d6000fd5b505050506040513d601f19601f82011682018060405250810190610abc9190612af4565b9050919050565b600360009054906101000a900473ffffffffffffffffffffffffffffffffffffffff1673ffffffffffffffffffffffffffffffffffffffff163373ffffffffffffffffffffffffffffffffffffffff1614610b53576040517f08c379a0000000000000000000000000000000000000000000000000000000008152600401610b4a90612a8c565b60405180910390fd5b8060028190555050565b600060606002547f000000000000000000000000000000000000000000000000000000000000000073ffffffffffffffffffffffffffffffffffffffff1663d09ef241856040518263ffffffff1660e01b8152600401610bbd91906125e8565b60e060405180830381865afa158015610bda573d6000803e3d6000fd5b505050506040513d601f19601f82011682018060405250810190610bfe9190612c7f565b6020015114915082604051602401610c1691906125e8565b6040516020818303038152906040526394f6113460e01b6020820180517bffffffffffffffffffffffffffffffffffffffffffffffffffffffff83818316178352505050509050915091565b7f000000000000000000000000000000000000000000000000000000000000000073ffffffffffffffffffffffffffffffffffffffff163373ffffffffffffffffffffffffffffffffffffffff1614610cf0576040517f08c379a0000000000000000000000000000000000000000000000000000000008152600401610ce790612cf8565b60405180910390fd5b6000600460009054906101000a900473ffffffffffffffffffffffffffffffffffffffff1673ffffffffffffffffffffffffffffffffffffffff1663f3fef3a37f000000000000000000000000000000000000000000000000000000000000000073ffffffffffffffffffffffffffffffffffffffff1663d09ef241856040518263ffffffff1660e01b8152600401610d8991906125e8565b60e060405180830381865afa158015610da6573d6000803e3d6000fd5b505050506040513d601f19601f82011682018060405250810190610dca9190612c7f565b60600151846040518363ffffffff1660e01b8152600401610dec929190612d18565b6020604051808303816000875af1158015610e0b573d6000803e3d6000fd5b505050506040513d601f19601f82011682018060405250810190610e2f9190612af4565b90507f000000000000000000000000000000000000000000000000000000000000000073ffffffffffffffffffffffffffffffffffffffff1663d09ef24160006040518263ffffffff1660e01b8152600401610e8b9190612d7c565b60e060405180830381865afa158015610ea8573d6000803e3d6000fd5b505050506040513d601f19601f82011682018060405250810190610ecc9190612c7f565b6060015173ffffffffffffffffffffffffffffffffffffffff1663095ea7b37f0000000000000000000000000000000000000000000000000000000000000000836040518363ffffffff1660e01b8152600401610f2a929190612d18565b6020604051808303816000875af1158015610f49573d6000803e3d6000fd5b505050506040513d601f19601f82011682018060405250810190610f6d9190612aac565b50600080610f79611cfa565b9150915060006040518061010001604052807f000000000000000000000000000000000000000000000000000000000000000073ffffffffffffffffffffffffffffffffffffffff1663d09ef241886040518263ffffffff1660e01b8152600401610fe491906125e8565b60e060405180830381865afa158015611001573d6000803e3d6000fd5b505050506040513d601f19601f820116820180604052508101906110259190612c7f565b6060015173ffffffffffffffffffffffffffffffffffffffff1681526020017f000000000000000000000000000000000000000000000000000000000000000073ffffffffffffffffffffffffffffffffffffffff1663d09ef241886040518263ffffffff1660e01b815260040161109d91906125e8565b60e060405180830381865afa1580156110ba573d6000803e3d6000fd5b505050506040513d601f19601f820116820180604052508101906110de9190612c7f565b6080015173ffffffffffffffffffffffffffffffffffffffff168152602001610bb862ffffff1681526020017f000000000000000000000000000000000000000000000000000000000000000073ffffffffffffffffffffffffffffffffffffffff1663d09ef241886040518263ffffffff1660e01b815260040161116391906125e8565b60e060405180830381865afa158015611180573d6000803e3d6000fd5b505050506040513d601f19601f820116820180604052508101906111a49190612c7f565b6000015173ffffffffffffffffffffffffffffffffffffffff16815260200142815260200185815260200160008152602001600073ffffffffffffffffffffffffffffffffffffffff1681525090507f000000000000000000000000000000000000000000000000000000000000000073ffffffffffffffffffffffffffffffffffffffff1663414bf389826040518263ffffffff1660e01b815260040161124c9190612e75565b6020604051808303816000875af115801561126b573d6000803e3d6000fd5b505050506040513d601f19601f8201168201806040525081019061128f9190612af4565b507f000000000000000000000000000000000000000000000000000000000000000073ffffffffffffffffffffffffffffffffffffffff16632993c690866040518263ffffffff1660e01b81526004016112e991906125e8565b600060405180830381600087803b15801561130357600080fd5b505af1158015611317573d6000803e3d6000fd5b505050507f9e86ce0485ddb047dd0f8fde14218156b79c2832f3c1ae9d2a05aa746cb6e3be8560405161134a9190612edd565b60405180910390a161135c8383611d97565b5050505050565b60025481565b606060008060009054906101000a900473ffffffffffffffffffffffffffffffffffffffff1673ffffffffffffffffffffffffffffffffffffffff1663a792765f85856040518363ffffffff1660e01b81526004016113c9929190612985565b600060405180830381865afa1580156113e6573d6000803e3d6000fd5b505050506040513d6000823e3d601f19601f8201168201806040525081019061140f9190612fb6565b90915080925081935050509250929050565b606060008054906101000a900473ffffffffffffffffffffffffffffffffffffffff1673ffffffffffffffffffffffffffffffffffffffff1663c5958af984846040518363ffffffff1660e01b815260040161147e929190612985565b600060405180830381865afa15801561149b573d6000803e3d6000fd5b505050506040513d6000823e3d601f19601f820116820180604052508101906114c49190613025565b905092915050565b60008060009054906101000a900473ffffffffffffffffffffffffffffffffffffffff1673ffffffffffffffffffffffffffffffffffffffff1663ce5e11bf84846040518363ffffffff1660e01b815260040161152a929190612985565b602060405180830381865afa158015611547573d6000803e3d6000fd5b505050506040513d601f19601f8201168201806040525081019061156b9190612af4565b905092915050565b60008060009054906101000a900473ffffffffffffffffffffffffffffffffffffffff1673ffffffffffffffffffffffffffffffffffffffff1663e07c548684846040518363ffffffff1660e01b81526004016115d1929190612985565b602060405180830381865afa1580156115ee573d6000803e3d6000fd5b505050506040513d601f19601f82011682018060405250810190611612919061306e565b905092915050565b7f000000000000000000000000000000000000000000000000000000000000000081565b600080600061164c85610a1f565b90506000810361166357600080925092505061181b565b808061166e906130ca565b9150506000600190506000806000849050600061168b8a836114cc565b90508881116116a6576000809750975050505050505061181b565b6116b08a846114cc565b9050888111156116bf57600094505b5b841561178757600283836116d491906130f3565b6116de9190613156565b93506116ea8a856114cc565b90508881111561173457600061170c8b6001876117079190613187565b6114cc565b905089811161171e576000955061172e565b60018561172b9190613187565b92505b50611782565b600061174c8b60018761174791906130f3565b6114cc565b90508981111561177057600095508480611765906131bb565b955050809150611780565b60018561177d91906130f3565b93505b505b6116c0565b6117918a8261091e565b6117a7576001849750975050505050505061181b565b5b6117b28a8261091e565b80156117bd57508584105b156117e15783806117cd906131bb565b9450506117da8a856114cc565b90506117a8565b85841480156117f657506117f58a8261091e565b5b1561180d576000809750975050505050505061181b565b600184975097505050505050505b9250929050565b600080600080600160009054906101000a900473ffffffffffffffffffffffffffffffffffffffff1673ffffffffffffffffffffffffffffffffffffffff166387a475fd866040518263ffffffff1660e01b81526004016118839190612ad9565b602060405180830381865afa1580156118a0573d6000803e3d6000fd5b505050506040513d601f19601f820116820180604052508101906118c49190613203565b905060606118de826001426118d991906130f3565b611369565b80955081925050506000840361190157600080610194945094509450505061191f565b600061190c82611ee0565b9050809550858560c89550955095505050505b9193909250565b60608060008061194188878961193c9190613187565b61163e565b91509150816119ee57600067ffffffffffffffff81111561196557611964612b26565b5b60405190808252806020026020018201604052801561199857816020015b60608152602001906001900390816119835790505b50600067ffffffffffffffff8111156119b4576119b3612b26565b5b6040519080825280602002602001820160405280156119e25781602001602082028036833780820191505090505b50935093505050611cf1565b60006119fa89896106a2565b809250819450505082611aac57600067ffffffffffffffff811115611a2257611a21612b26565b5b604051908082528060200260200182016040528015611a5557816020015b6060815260200190600190039081611a405790505b50600067ffffffffffffffff811115611a7157611a70612b26565b5b604051908082528060200260200182016040528015611a9f5781602001602082028036833780820191505090505b5094509450505050611cf1565b60008060008867ffffffffffffffff811115611acb57611aca612b26565b5b604051908082528060200260200182016040528015611af95781602001602082028036833780820191505090505b5090505b8883108015611b2257508482600186611b1691906130f3565b611b209190613187565b115b15611b91576000611b3e8d8487611b399190613187565b6114cc565b9050611b4a8d8261091e565b611b7d5780828581518110611b6257611b61613230565b5b6020026020010181815250508380611b79906131bb565b9450505b8280611b88906131bb565b93505050611afd565b60008367ffffffffffffffff811115611bad57611bac612b26565b5b604051908082528060200260200182016040528015611be057816020015b6060815260200190600190039081611bcb5790505b50905060008467ffffffffffffffff811115611bff57611bfe612b26565b5b604051908082528060200260200182016040528015611c2d5781602001602082028036833780820191505090505b50905060005b85811015611ce1578381600188611c4a9190613187565b611c549190613187565b81518110611c6557611c64613230565b5b6020026020010151828281518110611c8057611c7f613230565b5b602002602001018181525050611cb08f838381518110611ca357611ca2613230565b5b6020026020010151611421565b838281518110611cc357611cc2613230565b5b60200260200101819052508080611cd9906131bb565b915050611c33565b5081819950995050505050505050505b94509492505050565b6000807f000000000000000000000000000000000000000000000000000000000000000073ffffffffffffffffffffffffffffffffffffffff1663b810c6366040518163ffffffff1660e01b81526004016040805180830381865afa158015611d67573d6000803e3d6000fd5b505050506040513d601f19601f82011682018060405250810190611d8b919061325f565b80925081935050509091565b73eeeeeeeeeeeeeeeeeeeeeeeeeeeeeeeeeeeeeeee73ffffffffffffffffffffffffffffffffffffffff168173ffffffffffffffffffffffffffffffffffffffff1603611eb05760007f000000000000000000000000000000000000000000000000000000000000000073ffffffffffffffffffffffffffffffffffffffff1683604051611e24906132d0565b60006040518083038185875af1925050503d8060008114611e61576040519150601f19603f3d011682016040523d82523d6000602084013e611e66565b606091505b5050905080611eaa576040517f08c379a0000000000000000000000000000000000000000000000000000000008152600401611ea190613331565b60405180910390fd5b50611edc565b611edb817f000000000000000000000000000000000000000000000000000000000000000084611f48565b5b5050565b600080600090505b8251811015611f4257828181518110611f0457611f03613230565b5b602001015160f81c60f81b60f81c60ff1661010083611f239190613351565b611f2d91906130f3565b91508080611f3a906131bb565b915050611ee8565b50919050565b611fc98363a9059cbb60e01b8484604051602401611f67929190612d18565b604051602081830303815290604052907bffffffffffffffffffffffffffffffffffffffffffffffffffffffff19166020820180517bffffffffffffffffffffffffffffffffffffffffffffffffffffffff8381831617835250505050611fce565b505050565b6000612030826040518060400160405280602081526020017f5361666545524332303a206c6f772d6c6576656c2063616c6c206661696c65648152508573ffffffffffffffffffffffffffffffffffffffff166120959092919063ffffffff16565b905060008151111561209057808060200190518101906120509190612aac565b61208f576040517f08c379a000000000000000000000000000000000000000000000000000000000815260040161208690613405565b60405180910390fd5b5b505050565b60606120a484846000856120ad565b90509392505050565b6060824710156120f2576040517f08c379a00000000000000000000000000000000000000000000000000000000081526004016120e990613497565b60405180910390fd5b6000808673ffffffffffffffffffffffffffffffffffffffff16858760405161211b91906134e8565b60006040518083038185875af1925050503d8060008114612158576040519150601f19603f3d011682016040523d82523d6000602084013e61215d565b606091505b509150915061216e8783838761217a565b92505050949350505050565b606083156121dc5760008351036121d457612194856121ef565b6121d3576040517f08c379a00000000000000000000000000000000000000000000000000000000081526004016121ca9061354b565b60405180910390fd5b5b8290506121e7565b6121e68383612212565b5b949350505050565b6000808273ffffffffffffffffffffffffffffffffffffffff163b119050919050565b6000825111156122255781518083602001fd5b806040517f08c379a000000000000000000000000000000000000000000000000000000000815260040161225991906135af565b60405180910390fd5b6000604051905090565b600080fd5b600080fd5b600073ffffffffffffffffffffffffffffffffffffffff82169050919050565b60006122a182612276565b9050919050565b6122b181612296565b81146122bc57600080fd5b50565b6000813590506122ce816122a8565b92915050565b6000602082840312156122ea576122e961226c565b5b60006122f8848285016122bf565b91505092915050565b6000819050919050565b600061232661232161231c84612276565b612301565b612276565b9050919050565b60006123388261230b565b9050919050565b600061234a8261232d565b9050919050565b61235a8161233f565b82525050565b60006020820190506123756000830184612351565b92915050565b61238481612296565b82525050565b600060208201905061239f600083018461237b565b92915050565b6000819050919050565b6123b8816123a5565b81146123c357600080fd5b50565b6000813590506123d5816123af565b92915050565b6000819050919050565b6123ee816123db565b81146123f957600080fd5b50565b60008135905061240b816123e5565b92915050565b600080604083850312156124285761242761226c565b5b6000612436858286016123c6565b9250506020612447858286016123fc565b9150509250929050565b60008115159050919050565b61246681612451565b82525050565b612475816123db565b82525050565b6000604082019050612490600083018561245d565b61249d602083018461246c565b9392505050565b60006124af8261232d565b9050919050565b6124bf816124a4565b82525050565b60006020820190506124da60008301846124b6565b92915050565b60006020820190506124f5600083018461245d565b92915050565b600081519050919050565b600082825260208201905092915050565b60005b8381101561253557808201518184015260208101905061251a565b60008484015250505050565b6000601f19601f8301169050919050565b600061255d826124fb565b6125678185612506565b9350612577818560208601612517565b61258081612541565b840191505092915050565b600060408201905081810360008301526125a58185612552565b90506125b4602083018461246c565b9392505050565b6000602082840312156125d1576125d061226c565b5b60006125df848285016123c6565b91505092915050565b60006020820190506125fd600083018461246c565b92915050565b6000602082840312156126195761261861226c565b5b6000612627848285016123fc565b91505092915050565b6000604082019050612645600083018561245d565b81810360208301526126578184612552565b90509392505050565b6000602082019050818103600083015261267a8184612552565b905092915050565b600061268d8261232d565b9050919050565b61269d81612682565b82525050565b60006020820190506126b86000830184612694565b92915050565b6000819050919050565b6126d1816126be565b82525050565b60006060820190506126ec60008301866126c8565b6126f9602083018561246c565b612706604083018461246c565b949350505050565b600080600080608085870312156127285761272761226c565b5b6000612736878288016123c6565b9450506020612747878288016123fc565b9350506040612758878288016123fc565b9250506060612769878288016123fc565b91505092959194509250565b600081519050919050565b600082825260208201905092915050565b6000819050602082019050919050565b600082825260208201905092915050565b60006127bd826124fb565b6127c781856127a1565b93506127d7818560208601612517565b6127e081612541565b840191505092915050565b60006127f783836127b2565b905092915050565b6000602082019050919050565b600061281782612775565b6128218185612780565b93508360208202850161283385612791565b8060005b8581101561286f578484038952815161285085826127eb565b945061285b836127ff565b925060208a01995050600181019050612837565b50829750879550505050505092915050565b600081519050919050565b600082825260208201905092915050565b6000819050602082019050919050565b6128b6816123db565b82525050565b60006128c883836128ad565b60208301905092915050565b6000602082019050919050565b60006128ec82612881565b6128f6818561288c565b93506129018361289d565b8060005b8381101561293257815161291988826128bc565b9750612924836128d4565b925050600181019050612905565b5085935050505092915050565b60006040820190508181036000830152612959818561280c565b9050818103602083015261296d81846128e1565b90509392505050565b61297f816123a5565b82525050565b600060408201905061299a6000830185612976565b6129a7602083018461246c565b9392505050565b6129b781612451565b81146129c257600080fd5b50565b6000815190506129d4816129ae565b92915050565b6000815190506129e9816123e5565b92915050565b60008060408385031215612a0657612a0561226c565b5b6000612a14858286016129c5565b9250506020612a25858286016129da565b9150509250929050565b600082825260208201905092915050565b7f4e6f7420616c6c6f77656420616464726573732e000000000000000000000000600082015250565b6000612a76601483612a2f565b9150612a8182612a40565b602082019050919050565b60006020820190508181036000830152612aa581612a69565b9050919050565b600060208284031215612ac257612ac161226c565b5b6000612ad0848285016129c5565b91505092915050565b6000602082019050612aee6000830184612976565b92915050565b600060208284031215612b0a57612b0961226c565b5b6000612b18848285016129da565b91505092915050565b600080fd5b7f4e487b7100000000000000000000000000000000000000000000000000000000600052604160045260246000fd5b612b5e82612541565b810181811067ffffffffffffffff82111715612b7d57612b7c612b26565b5b80604052505050565b6000612b90612262565b9050612b9c8282612b55565b919050565b600081519050612bb0816122a8565b92915050565b600081519050612bc5816123af565b92915050565b600060e08284031215612be157612be0612b21565b5b612beb60e0612b86565b90506000612bfb84828501612ba1565b6000830152506020612c0f848285016129da565b6020830152506040612c23848285016129da565b6040830152506060612c3784828501612ba1565b6060830152506080612c4b84828501612ba1565b60808301525060a0612c5f84828501612bb6565b60a08301525060c0612c73848285016129c5565b60c08301525092915050565b600060e08284031215612c9557612c9461226c565b5b6000612ca384828501612bcb565b91505092915050565b7f4f6e6c7920646564696361746564206d73672e73656e64657200000000000000600082015250565b6000612ce2601983612a2f565b9150612ced82612cac565b602082019050919050565b60006020820190508181036000830152612d1181612cd5565b9050919050565b6000604082019050612d2d600083018561237b565b612d3a602083018461246c565b9392505050565b6000819050919050565b6000612d66612d61612d5c84612d41565b612301565b6123db565b9050919050565b612d7681612d4b565b82525050565b6000602082019050612d916000830184612d6d565b92915050565b612da081612296565b82525050565b600062ffffff82169050919050565b612dbe81612da6565b82525050565b612dcd81612276565b82525050565b61010082016000820151612dea6000850182612d97565b506020820151612dfd6020850182612d97565b506040820151612e106040850182612db5565b506060820151612e236060850182612d97565b506080820151612e3660808501826128ad565b5060a0820151612e4960a08501826128ad565b5060c0820151612e5c60c08501826128ad565b5060e0820151612e6f60e0850182612dc4565b50505050565b600061010082019050612e8b6000830184612dd3565b92915050565b7f6f726465725f6578656375746564000000000000000000000000000000000000600082015250565b6000612ec7600e83612a2f565b9150612ed282612e91565b602082019050919050565b60006040820190508181036000830152612ef681612eba565b9050612f05602083018461246c565b92915050565b600080fd5b600080fd5b600067ffffffffffffffff821115612f3057612f2f612b26565b5b612f3982612541565b9050602081019050919050565b6000612f59612f5484612f15565b612b86565b905082815260208101848484011115612f7557612f74612f10565b5b612f80848285612517565b509392505050565b600082601f830112612f9d57612f9c612f0b565b5b8151612fad848260208601612f46565b91505092915050565b600080600060608486031215612fcf57612fce61226c565b5b6000612fdd868287016129c5565b935050602084015167ffffffffffffffff811115612ffe57612ffd612271565b5b61300a86828701612f88565b925050604061301b868287016129da565b9150509250925092565b60006020828403121561303b5761303a61226c565b5b600082015167ffffffffffffffff81111561305957613058612271565b5b61306584828501612f88565b91505092915050565b6000602082840312156130845761308361226c565b5b600061309284828501612ba1565b91505092915050565b7f4e487b7100000000000000000000000000000000000000000000000000000000600052601160045260246000fd5b60006130d5826123db565b9150600082036130e8576130e761309b565b5b600182039050919050565b60006130fe826123db565b9150613109836123db565b92508282019050808211156131215761312061309b565b5b92915050565b7f4e487b7100000000000000000000000000000000000000000000000000000000600052601260045260246000fd5b6000613161826123db565b915061316c836123db565b92508261317c5761317b613127565b5b828204905092915050565b6000613192826123db565b915061319d836123db565b92508282039050818111156131b5576131b461309b565b5b92915050565b60006131c6826123db565b91507fffffffffffffffffffffffffffffffffffffffffffffffffffffffffffffffff82036131f8576131f761309b565b5b600182019050919050565b6000602082840312156132195761321861226c565b5b600061322784828501612bb6565b91505092915050565b7f4e487b7100000000000000000000000000000000000000000000000000000000600052603260045260246000fd5b600080604083850312156132765761327561226c565b5b6000613284858286016129da565b925050602061329585828601612ba1565b9150509250929050565b600081905092915050565b50565b60006132ba60008361329f565b91506132c5826132aa565b600082019050919050565b60006132db826132ad565b9150819050919050565b7f5f7472616e736665723a20455448207472616e73666572206661696c65640000600082015250565b600061331b601e83612a2f565b9150613326826132e5565b602082019050919050565b6000602082019050818103600083015261334a8161330e565b9050919050565b600061335c826123db565b9150613367836123db565b9250828202613375816123db565b9150828204841483151761338c5761338b61309b565b5b5092915050565b7f5361666545524332303a204552433230206f7065726174696f6e20646964206e60008201527f6f74207375636365656400000000000000000000000000000000000000000000602082015250565b60006133ef602a83612a2f565b91506133fa82613393565b604082019050919050565b6000602082019050818103600083015261341e816133e2565b9050919050565b7f416464726573733a20696e73756666696369656e742062616c616e636520666f60008201527f722063616c6c0000000000000000000000000000000000000000000000000000602082015250565b6000613481602683612a2f565b915061348c82613425565b604082019050919050565b600060208201905081810360008301526134b081613474565b9050919050565b60006134c2826124fb565b6134cc818561329f565b93506134dc818560208601612517565b80840191505092915050565b60006134f482846134b7565b915081905092915050565b7f416464726573733a2063616c6c20746f206e6f6e2d636f6e7472616374000000600082015250565b6000613535601d83612a2f565b9150613540826134ff565b602082019050919050565b6000602082019050818103600083015261356481613528565b9050919050565b600081519050919050565b60006135818261356b565b61358b8185612a2f565b935061359b818560208601612517565b6135a481612541565b840191505092915050565b600060208201905081810360008301526135c98184613576565b90509291505056fea2646970667358221220b0b8209db6344417c7f143f5abd80ef40366d34e57228bc259fcb64911ecc9b364736f6c63430008130033",
  "immutableReferences": {
    "1317": [
      {
        "length": 32,
        "start": 2918
      },
      {
        "length": 32,
        "start": 3378
      },
      {
        "length": 32,
        "start": 3635
      },
      {
        "length": 32,
        "start": 3981
      },
      {
        "length": 32,
        "start": 4166
      },
      {
        "length": 32,
        "start": 4364
      },
      {
        "length": 32,
        "start": 4754
      }
    ],
    "1320": [
      {
        "length": 32,
        "start": 3821
      },
      {
        "length": 32,
        "start": 4597
      }
    ],
    "1562": [
      {
        "length": 32,
        "start": 5660
      },
      {
        "length": 32,
        "start": 7423
      }
    ],
    "1564": [
      {
        "length": 32,
        "start": 1664
      },
      {
        "length": 32,
        "start": 3172
      }
    ],
    "1566": [
      {
        "length": 32,
        "start": 7650
      },
      {
        "length": 32,
        "start": 7862
      }
    ]
  },
  "source": "// SPDX-License-Identifier: UNLICENSED\npragma solidity ^0.8.19;\n\nimport \"./gelato/OpsReady.sol\";\nimport \"./OrderBook.sol\";\nimport './LendingVault.sol';\nimport \"./uniswap/ISwapRouter.sol\";\nimport \"./oracles/tellor/UsingTellor.sol\";\n\ncontract OrderExecutor is OpsReady, UsingTellor {\n\n    uint public price; // temporary, testing purposes only\n    address private deployer;\n\n    OrderBook private immutable orderBook;\n    ISwapRouter private immutable swapRouter;\n    LendingVault private lendingVault;\n\n    event OrderDone(string, uint256);\n\n    modifier onlyDeployer {\n        require(msg.sender == deployer, \"Not allowed address.\");\n        _; // Continue the execution of the function called\n    }\n\n    constructor(address _ops, address _taskCreator, address _swapRouter, address payable _tellorAddress) OpsReady(_ops, _taskCreator) UsingTellor(_tellorAddress) {\n        price = 100; // arbitrary price for testing\n        deployer = msg.sender;\n        orderBook = OrderBook(_taskCreator);\n        swapRouter = ISwapRouter(_swapRouter);\n    }\n\n    function setPrice(uint _price) public onlyDeployer {\n        price = _price;\n    }\n\n    receive() external payable {}\n\n    function setLendingVault(address _lendingVault) public onlyDeployer {\n        lendingVault = LendingVault(_lendingVault);\n    }\n\n    function executeOrder(uint orderNonce) external onlyDedicatedMsgSender {\n        // execute order with orderNonce here\n        uint256 amountWithdrawed = lendingVault.withdraw(orderBook.getOrder(orderNonce).tokenIn, orderNonce);\n\n        // Approving the appropriate amount that uniswap is gonna take on order to make the swap\n        IERC20(orderBook.getOrder(0).tokenIn).approve(address(swapRouter), amountWithdrawed);\n\n        (uint256 fee, address feeToken) = _getFeeDetails();\n        // Here we need to verify gasfees with an oracle (like chainlink)\n\n        // Here we should put an order that is swapping the needed amount of underleying asset to wrapped native token\n        // Then unwrap it to be able to send them to gelato node at the end of the function execution\n\n        // Naively set amountOutMinimum to 0. In production, use an oracle or other data source to choose a safer value for amountOutMinimum.\n        // We also set the sqrtPriceLimitx96 to be 0 to ensure we swap our exact input amount.\n        ISwapRouter.ExactInputSingleParams memory params =\n            ISwapRouter.ExactInputSingleParams({\n                tokenIn: orderBook.getOrder(orderNonce).tokenIn,\n                tokenOut: orderBook.getOrder(orderNonce).tokenOut,\n                fee: 3000, // For this example, we will set the pool fee to 0.3%.\n                recipient: orderBook.getOrder(orderNonce).user,\n                deadline: block.timestamp,\n                amountIn: amountWithdrawed,\n                amountOutMinimum: 0, // NOT IN PRODUCTION\n                sqrtPriceLimitX96: 0 // NOT IN PRODUCTION\n            });\n\n        // The call to `exactInputSingle` executes the swap.\n        swapRouter.exactInputSingle(params);\n\n        orderBook.setExecuted(orderNonce);\n        emit OrderDone(\"order_executed\", orderNonce);\n        \n        _transfer(fee, feeToken);\n    }\n\n    function checker(uint orderNonce) external view returns (bool canExec, bytes memory execPayload) {\n        canExec = orderBook.getOrder(orderNonce).price == price; // The condition that needs to be true for the task to be executed, you can filter the condition with the orderId\n        execPayload = abi.encodeCall(OrderExecutor.executeOrder, orderNonce); // The function that you want to call on the contract\n    }\n\n    // Only used for testing\n    function withdraw() public onlyDeployer {\n        payable(msg.sender).transfer(address(this).balance);\n    }\n\n}\n",
  "sourcePath": "/Users/blabla/Documents/gelato_test/contracts/OrderExecutor.sol",
  "compiler": {
    "name": "solc",
    "version": "0.8.19+commit.7dd6d404.Emscripten.clang"
  },
  "schemaVersion": "3.4.11",
  "updatedAt": "2023-03-05T20:04:38.688Z",
  "networkType": "ethereum",
  "devdoc": {
    "kind": "dev",
    "methods": {
      "getDataAfter(bytes32,uint256)": {
        "details": "Retrieves the next value for the queryId after the specified timestamp",
        "params": {
          "_queryId": "is the queryId to look up the value for",
          "_timestamp": "after which to search for next value"
        },
        "returns": {
          "_timestampRetrieved": "the value's timestamp",
          "_value": "the value retrieved"
        }
      },
      "getDataBefore(bytes32,uint256)": {
        "details": "Retrieves the latest value for the queryId before the specified timestamp",
        "params": {
          "_queryId": "is the queryId to look up the value for",
          "_timestamp": "before which to search for latest value"
        },
        "returns": {
          "_timestampRetrieved": "the value's timestamp",
          "_value": "the value retrieved"
        }
      },
      "getIndexForDataAfter(bytes32,uint256)": {
        "details": "Retrieves latest array index of data before the specified timestamp for the queryId",
        "params": {
          "_queryId": "is the queryId to look up the index for",
          "_timestamp": "is the timestamp before which to search for the latest index"
        },
        "returns": {
          "_found": "whether the index was found",
          "_index": "the latest index found before the specified timestamp"
        }
      },
      "getIndexForDataBefore(bytes32,uint256)": {
        "details": "Retrieves latest array index of data before the specified timestamp for the queryId",
        "params": {
          "_queryId": "is the queryId to look up the index for",
          "_timestamp": "is the timestamp before which to search for the latest index"
        },
        "returns": {
          "_found": "whether the index was found",
          "_index": "the latest index found before the specified timestamp"
        }
      },
      "getMultipleValuesBefore(bytes32,uint256,uint256,uint256)": {
        "details": "Retrieves multiple uint256 values before the specified timestamp",
        "params": {
          "_maxAge": "the maximum number of seconds before the _timestamp to search for values",
          "_maxCount": "the maximum number of values to return",
          "_queryId": "the unique id of the data query",
          "_timestamp": "the timestamp before which to search for values"
        },
        "returns": {
          "_timestamps": "the timestamps of the values retrieved",
          "_values": "the values retrieved, ordered from oldest to newest"
        }
      },
      "getNewValueCountbyQueryId(bytes32)": {
        "details": "Counts the number of values that have been submitted for the queryId",
        "params": {
          "_queryId": "the id to look up"
        },
        "returns": {
          "_0": "uint256 count of the number of values received for the queryId"
        }
      },
      "getReporterByTimestamp(bytes32,uint256)": {
        "details": "Returns the address of the reporter who submitted a value for a data ID at a specific time",
        "params": {
          "_queryId": "is ID of the specific data feed",
          "_timestamp": "is the timestamp to find a corresponding reporter for"
        },
        "returns": {
          "_0": "address of the reporter who reported the value for the data ID at the given timestamp"
        }
      },
      "getTimestampbyQueryIdandIndex(bytes32,uint256)": {
        "details": "Gets the timestamp for the value based on their index",
        "params": {
          "_index": "is the value index to look up",
          "_queryId": "is the id to look up"
        },
        "returns": {
          "_0": "uint256 timestamp"
        }
      },
      "isInDispute(bytes32,uint256)": {
        "details": "Determines whether a value with a given queryId and timestamp has been disputed",
        "params": {
          "_queryId": "is the value id to look up",
          "_timestamp": "is the timestamp of the value to look up"
        },
        "returns": {
          "_0": "bool true if queryId/timestamp is under dispute"
        }
      },
      "retrieveData(bytes32,uint256)": {
        "details": "Retrieve value from oracle based on queryId/timestamp",
        "params": {
          "_queryId": "being requested",
          "_timestamp": "to retrieve data/value from"
        },
        "returns": {
          "_0": "bytes value for query/timestamp submitted"
        }
      },
      "setIdMappingContract(address)": {
        "details": "allows dev to set mapping contract for valueFor (EIP2362)",
        "params": {
          "_addy": "address of mapping contract"
        }
      },
      "valueFor(bytes32)": {
        "details": "Retrieve most recent int256 value from oracle based on queryId",
        "params": {
          "_id": "being requested"
        },
        "returns": {
          "_statusCode": "200 if value found, 404 if not found",
          "_timestamp": "timestamp of most recent value",
          "_value": "most recent value submitted"
        }
      }
    },
    "version": 1
  },
  "userdoc": {
    "kind": "user",
    "methods": {},
    "version": 1
  }
}