{
  "contractName": "OrderExecutor",
  "abi": [
    {
      "inputs": [
        {
          "internalType": "address",
          "name": "_ops",
          "type": "address"
        },
        {
          "internalType": "address",
          "name": "_taskCreator",
          "type": "address"
        },
        {
          "internalType": "address",
          "name": "_swapRouter",
          "type": "address"
        },
        {
          "internalType": "address",
          "name": "_linkFeedAddress",
          "type": "address"
        }
      ],
      "stateMutability": "nonpayable",
      "type": "constructor"
    },
    {
      "anonymous": false,
      "inputs": [
        {
          "indexed": false,
          "internalType": "string",
          "name": "",
          "type": "string"
        },
        {
          "indexed": false,
          "internalType": "uint256",
          "name": "",
          "type": "uint256"
        }
      ],
      "name": "OrderDone",
      "type": "event"
    },
    {
      "inputs": [],
      "name": "dedicatedMsgSender",
      "outputs": [
        {
          "internalType": "address",
          "name": "",
          "type": "address"
        }
      ],
      "stateMutability": "view",
      "type": "function",
      "constant": true
    },
    {
      "inputs": [],
      "name": "ops",
      "outputs": [
        {
          "internalType": "contract IOps",
          "name": "",
          "type": "address"
        }
      ],
      "stateMutability": "view",
      "type": "function",
      "constant": true
    },
    {
      "inputs": [],
      "name": "price",
      "outputs": [
        {
          "internalType": "uint256",
          "name": "",
          "type": "uint256"
        }
      ],
      "stateMutability": "view",
      "type": "function",
      "constant": true
    },
    {
      "stateMutability": "payable",
      "type": "receive",
      "payable": true
    },
    {
      "inputs": [
        {
          "internalType": "uint256",
          "name": "_price",
          "type": "uint256"
        }
      ],
      "name": "setPrice",
      "outputs": [],
      "stateMutability": "nonpayable",
      "type": "function"
    },
    {
      "inputs": [
        {
          "internalType": "address",
          "name": "_lendingVault",
          "type": "address"
        }
      ],
      "name": "setLendingVault",
      "outputs": [],
      "stateMutability": "nonpayable",
      "type": "function"
    },
    {
      "inputs": [
        {
          "internalType": "uint256",
          "name": "orderNonce",
          "type": "uint256"
        }
      ],
      "name": "executeOrder",
      "outputs": [],
      "stateMutability": "nonpayable",
      "type": "function"
    },
    {
      "inputs": [
        {
          "internalType": "uint256",
          "name": "orderNonce",
          "type": "uint256"
        }
      ],
      "name": "checker",
      "outputs": [
        {
          "internalType": "bool",
          "name": "canExec",
          "type": "bool"
        },
        {
          "internalType": "bytes",
          "name": "execPayload",
          "type": "bytes"
        }
      ],
      "stateMutability": "view",
      "type": "function",
      "constant": true
    },
    {
      "inputs": [],
      "name": "withdraw",
      "outputs": [],
      "stateMutability": "nonpayable",
      "type": "function"
    },
    {
      "inputs": [],
      "name": "getLatestWethPrice",
      "outputs": [
        {
          "internalType": "int256",
          "name": "",
          "type": "int256"
        }
      ],
      "stateMutability": "view",
      "type": "function",
      "constant": true
    }
  ],
  "bytecode": "0x6101206040523480156200001257600080fd5b506040516200242038038062002420833981810160405281019062000038919062000343565b83838173ffffffffffffffffffffffffffffffffffffffff1660808173ffffffffffffffffffffffffffffffffffffffff16815250508173ffffffffffffffffffffffffffffffffffffffff1663573ea5756040518163ffffffff1660e01b8152600401602060405180830381865afa158015620000ba573d6000803e3d6000fd5b505050506040513d601f19601f82011682018060405250810190620000e09190620003fa565b73ffffffffffffffffffffffffffffffffffffffff1660c08173ffffffffffffffffffffffffffffffffffffffff168152505073c815db16d4be6ddf2685c201937905abf338f5d773ffffffffffffffffffffffffffffffffffffffff1663ded89a7c826040518263ffffffff1660e01b81526004016200016291906200043d565b6040805180830381865afa1580156200017f573d6000803e3d6000fd5b505050506040513d601f19601f82011682018060405250810190620001a5919062000497565b508073ffffffffffffffffffffffffffffffffffffffff1660a09073ffffffffffffffffffffffffffffffffffffffff16815250505050606460008190555033600160006101000a81548173ffffffffffffffffffffffffffffffffffffffff021916908373ffffffffffffffffffffffffffffffffffffffff1602179055508273ffffffffffffffffffffffffffffffffffffffff1660e08173ffffffffffffffffffffffffffffffffffffffff16815250508173ffffffffffffffffffffffffffffffffffffffff166101008173ffffffffffffffffffffffffffffffffffffffff168152505080600360006101000a81548173ffffffffffffffffffffffffffffffffffffffff021916908373ffffffffffffffffffffffffffffffffffffffff16021790555050505050620004de565b600080fd5b600073ffffffffffffffffffffffffffffffffffffffff82169050919050565b60006200030b82620002de565b9050919050565b6200031d81620002fe565b81146200032957600080fd5b50565b6000815190506200033d8162000312565b92915050565b6000806000806080858703121562000360576200035f620002d9565b5b600062000370878288016200032c565b945050602062000383878288016200032c565b935050604062000396878288016200032c565b9250506060620003a9878288016200032c565b91505092959194509250565b6000620003c282620002de565b9050919050565b620003d481620003b5565b8114620003e057600080fd5b50565b600081519050620003f481620003c9565b92915050565b600060208284031215620004135762000412620002d9565b5b60006200042384828501620003e3565b91505092915050565b6200043781620002fe565b82525050565b60006020820190506200045460008301846200042c565b92915050565b60008115159050919050565b62000471816200045a565b81146200047d57600080fd5b50565b600081519050620004918162000466565b92915050565b60008060408385031215620004b157620004b0620002d9565b5b6000620004c1858286016200032c565b9250506020620004d48582860162000480565b9150509250929050565b60805160a05160c05160e05161010051611eb7620005696000396000818161080d0152610b150152600081816104860152818161065201528181610753015281816108ad0152818161096601528181610a2c0152610bb2015260008181610e440152610f180152600081816102140152610584015260008181610c8b0152610d610152611eb76000f3fe60806040526004361061008a5760003560e01c806394e05b2c1161005957806394e05b2c1461012a57806394f6113414610168578063a035b1fe14610191578063e70abe92146101bc578063f287573f146101e757610091565b806328f150eb146100965780633ccfd60b146100c1578063408a03d8146100d857806391b7f5ed1461010157610091565b3661009157005b600080fd5b3480156100a257600080fd5b506100ab610212565b6040516100b8919061129d565b60405180910390f35b3480156100cd57600080fd5b506100d6610236565b005b3480156100e457600080fd5b506100ff60048036038101906100fa91906112f3565b61030f565b005b34801561010d57600080fd5b5061012860048036038101906101239190611356565b6103e3565b005b34801561013657600080fd5b50610151600480360381019061014c9190611356565b61047d565b60405161015f92919061142e565b60405180910390f35b34801561017457600080fd5b5061018f600480360381019061018a9190611356565b610582565b005b34801561019d57600080fd5b506101a6610c83565b6040516101b3919061146d565b60405180910390f35b3480156101c857600080fd5b506101d1610c89565b6040516101de91906114e7565b60405180910390f35b3480156101f357600080fd5b506101fc610cad565b604051610209919061151b565b60405180910390f35b7f000000000000000000000000000000000000000000000000000000000000000081565b600160009054906101000a900473ffffffffffffffffffffffffffffffffffffffff1673ffffffffffffffffffffffffffffffffffffffff163373ffffffffffffffffffffffffffffffffffffffff16146102c6576040517f08c379a00000000000000000000000000000000000000000000000000000000081526004016102bd90611593565b60405180910390fd5b3373ffffffffffffffffffffffffffffffffffffffff166108fc479081150290604051600060405180830381858888f1935050505015801561030c573d6000803e3d6000fd5b50565b600160009054906101000a900473ffffffffffffffffffffffffffffffffffffffff1673ffffffffffffffffffffffffffffffffffffffff163373ffffffffffffffffffffffffffffffffffffffff161461039f576040517f08c379a000000000000000000000000000000000000000000000000000000000815260040161039690611593565b60405180910390fd5b80600260006101000a81548173ffffffffffffffffffffffffffffffffffffffff021916908373ffffffffffffffffffffffffffffffffffffffff16021790555050565b600160009054906101000a900473ffffffffffffffffffffffffffffffffffffffff1673ffffffffffffffffffffffffffffffffffffffff163373ffffffffffffffffffffffffffffffffffffffff1614610473576040517f08c379a000000000000000000000000000000000000000000000000000000000815260040161046a90611593565b60405180910390fd5b8060008190555050565b600060606000547f000000000000000000000000000000000000000000000000000000000000000073ffffffffffffffffffffffffffffffffffffffff1663d09ef241856040518263ffffffff1660e01b81526004016104dd919061146d565b60e060405180830381865afa1580156104fa573d6000803e3d6000fd5b505050506040513d601f19601f8201168201806040525081019061051e9190611773565b6020015114915082604051602401610536919061146d565b6040516020818303038152906040526394f6113460e01b6020820180517bffffffffffffffffffffffffffffffffffffffffffffffffffffffff83818316178352505050509050915091565b7f000000000000000000000000000000000000000000000000000000000000000073ffffffffffffffffffffffffffffffffffffffff163373ffffffffffffffffffffffffffffffffffffffff1614610610576040517f08c379a0000000000000000000000000000000000000000000000000000000008152600401610607906117ec565b60405180910390fd5b6000600260009054906101000a900473ffffffffffffffffffffffffffffffffffffffff1673ffffffffffffffffffffffffffffffffffffffff1663f3fef3a37f000000000000000000000000000000000000000000000000000000000000000073ffffffffffffffffffffffffffffffffffffffff1663d09ef241856040518263ffffffff1660e01b81526004016106a9919061146d565b60e060405180830381865afa1580156106c6573d6000803e3d6000fd5b505050506040513d601f19601f820116820180604052508101906106ea9190611773565b60600151846040518363ffffffff1660e01b815260040161070c92919061180c565b6020604051808303816000875af115801561072b573d6000803e3d6000fd5b505050506040513d601f19601f8201168201806040525081019061074f9190611835565b90507f000000000000000000000000000000000000000000000000000000000000000073ffffffffffffffffffffffffffffffffffffffff1663d09ef24160006040518263ffffffff1660e01b81526004016107ab919061189d565b60e060405180830381865afa1580156107c8573d6000803e3d6000fd5b505050506040513d601f19601f820116820180604052508101906107ec9190611773565b6060015173ffffffffffffffffffffffffffffffffffffffff1663095ea7b37f0000000000000000000000000000000000000000000000000000000000000000836040518363ffffffff1660e01b815260040161084a92919061180c565b6020604051808303816000875af1158015610869573d6000803e3d6000fd5b505050506040513d601f19601f8201168201806040525081019061088d91906118b8565b50600080610899610d5c565b9150915060006040518061010001604052807f000000000000000000000000000000000000000000000000000000000000000073ffffffffffffffffffffffffffffffffffffffff1663d09ef241886040518263ffffffff1660e01b8152600401610904919061146d565b60e060405180830381865afa158015610921573d6000803e3d6000fd5b505050506040513d601f19601f820116820180604052508101906109459190611773565b6060015173ffffffffffffffffffffffffffffffffffffffff1681526020017f000000000000000000000000000000000000000000000000000000000000000073ffffffffffffffffffffffffffffffffffffffff1663d09ef241886040518263ffffffff1660e01b81526004016109bd919061146d565b60e060405180830381865afa1580156109da573d6000803e3d6000fd5b505050506040513d601f19601f820116820180604052508101906109fe9190611773565b6080015173ffffffffffffffffffffffffffffffffffffffff168152602001610bb862ffffff1681526020017f000000000000000000000000000000000000000000000000000000000000000073ffffffffffffffffffffffffffffffffffffffff1663d09ef241886040518263ffffffff1660e01b8152600401610a83919061146d565b60e060405180830381865afa158015610aa0573d6000803e3d6000fd5b505050506040513d601f19601f82011682018060405250810190610ac49190611773565b6000015173ffffffffffffffffffffffffffffffffffffffff16815260200142815260200185815260200160008152602001600073ffffffffffffffffffffffffffffffffffffffff1681525090507f000000000000000000000000000000000000000000000000000000000000000073ffffffffffffffffffffffffffffffffffffffff1663414bf389826040518263ffffffff1660e01b8152600401610b6c91906119d2565b6020604051808303816000875af1158015610b8b573d6000803e3d6000fd5b505050506040513d601f19601f82011682018060405250810190610baf9190611835565b507f000000000000000000000000000000000000000000000000000000000000000073ffffffffffffffffffffffffffffffffffffffff16632993c690866040518263ffffffff1660e01b8152600401610c09919061146d565b600060405180830381600087803b158015610c2357600080fd5b505af1158015610c37573d6000803e3d6000fd5b505050507f9e86ce0485ddb047dd0f8fde14218156b79c2832f3c1ae9d2a05aa746cb6e3be85604051610c6a9190611a3a565b60405180910390a1610c7c8383610df9565b5050505050565b60005481565b7f000000000000000000000000000000000000000000000000000000000000000081565b600080600080600080600360009054906101000a900473ffffffffffffffffffffffffffffffffffffffff1673ffffffffffffffffffffffffffffffffffffffff1663feaf968c6040518163ffffffff1660e01b815260040160a060405180830381865afa158015610d23573d6000803e3d6000fd5b505050506040513d601f19601f82011682018060405250810190610d479190611ad6565b94509450945094509450839550505050505090565b6000807f000000000000000000000000000000000000000000000000000000000000000073ffffffffffffffffffffffffffffffffffffffff1663b810c6366040518163ffffffff1660e01b81526004016040805180830381865afa158015610dc9573d6000803e3d6000fd5b505050506040513d601f19601f82011682018060405250810190610ded9190611b51565b80925081935050509091565b73eeeeeeeeeeeeeeeeeeeeeeeeeeeeeeeeeeeeeeee73ffffffffffffffffffffffffffffffffffffffff168173ffffffffffffffffffffffffffffffffffffffff1603610f125760007f000000000000000000000000000000000000000000000000000000000000000073ffffffffffffffffffffffffffffffffffffffff1683604051610e8690611bc2565b60006040518083038185875af1925050503d8060008114610ec3576040519150601f19603f3d011682016040523d82523d6000602084013e610ec8565b606091505b5050905080610f0c576040517f08c379a0000000000000000000000000000000000000000000000000000000008152600401610f0390611c23565b60405180910390fd5b50610f3e565b610f3d817f000000000000000000000000000000000000000000000000000000000000000084610f42565b5b5050565b610fc38363a9059cbb60e01b8484604051602401610f6192919061180c565b604051602081830303815290604052907bffffffffffffffffffffffffffffffffffffffffffffffffffffffff19166020820180517bffffffffffffffffffffffffffffffffffffffffffffffffffffffff8381831617835250505050610fc8565b505050565b600061102a826040518060400160405280602081526020017f5361666545524332303a206c6f772d6c6576656c2063616c6c206661696c65648152508573ffffffffffffffffffffffffffffffffffffffff1661108f9092919063ffffffff16565b905060008151111561108a578080602001905181019061104a91906118b8565b611089576040517f08c379a000000000000000000000000000000000000000000000000000000000815260040161108090611cb5565b60405180910390fd5b5b505050565b606061109e84846000856110a7565b90509392505050565b6060824710156110ec576040517f08c379a00000000000000000000000000000000000000000000000000000000081526004016110e390611d47565b60405180910390fd5b6000808673ffffffffffffffffffffffffffffffffffffffff1685876040516111159190611d98565b60006040518083038185875af1925050503d8060008114611152576040519150601f19603f3d011682016040523d82523d6000602084013e611157565b606091505b509150915061116887838387611174565b92505050949350505050565b606083156111d65760008351036111ce5761118e856111e9565b6111cd576040517f08c379a00000000000000000000000000000000000000000000000000000000081526004016111c490611dfb565b60405180910390fd5b5b8290506111e1565b6111e0838361120c565b5b949350505050565b6000808273ffffffffffffffffffffffffffffffffffffffff163b119050919050565b60008251111561121f5781518083602001fd5b806040517f08c379a00000000000000000000000000000000000000000000000000000000081526004016112539190611e5f565b60405180910390fd5b600073ffffffffffffffffffffffffffffffffffffffff82169050919050565b60006112878261125c565b9050919050565b6112978161127c565b82525050565b60006020820190506112b2600083018461128e565b92915050565b6000604051905090565b600080fd5b6112d08161127c565b81146112db57600080fd5b50565b6000813590506112ed816112c7565b92915050565b600060208284031215611309576113086112c2565b5b6000611317848285016112de565b91505092915050565b6000819050919050565b61133381611320565b811461133e57600080fd5b50565b6000813590506113508161132a565b92915050565b60006020828403121561136c5761136b6112c2565b5b600061137a84828501611341565b91505092915050565b60008115159050919050565b61139881611383565b82525050565b600081519050919050565b600082825260208201905092915050565b60005b838110156113d85780820151818401526020810190506113bd565b60008484015250505050565b6000601f19601f8301169050919050565b60006114008261139e565b61140a81856113a9565b935061141a8185602086016113ba565b611423816113e4565b840191505092915050565b6000604082019050611443600083018561138f565b818103602083015261145581846113f5565b90509392505050565b61146781611320565b82525050565b6000602082019050611482600083018461145e565b92915050565b6000819050919050565b60006114ad6114a86114a38461125c565b611488565b61125c565b9050919050565b60006114bf82611492565b9050919050565b60006114d1826114b4565b9050919050565b6114e1816114c6565b82525050565b60006020820190506114fc60008301846114d8565b92915050565b6000819050919050565b61151581611502565b82525050565b6000602082019050611530600083018461150c565b92915050565b600082825260208201905092915050565b7f4e6f7420616c6c6f77656420616464726573732e000000000000000000000000600082015250565b600061157d601483611536565b915061158882611547565b602082019050919050565b600060208201905081810360008301526115ac81611570565b9050919050565b600080fd5b7f4e487b7100000000000000000000000000000000000000000000000000000000600052604160045260246000fd5b6115f0826113e4565b810181811067ffffffffffffffff8211171561160f5761160e6115b8565b5b80604052505050565b60006116226112b8565b905061162e82826115e7565b919050565b600081519050611642816112c7565b92915050565b6000815190506116578161132a565b92915050565b6000819050919050565b6116708161165d565b811461167b57600080fd5b50565b60008151905061168d81611667565b92915050565b61169c81611383565b81146116a757600080fd5b50565b6000815190506116b981611693565b92915050565b600060e082840312156116d5576116d46115b3565b5b6116df60e0611618565b905060006116ef84828501611633565b600083015250602061170384828501611648565b602083015250604061171784828501611648565b604083015250606061172b84828501611633565b606083015250608061173f84828501611633565b60808301525060a06117538482850161167e565b60a08301525060c0611767848285016116aa565b60c08301525092915050565b600060e08284031215611789576117886112c2565b5b6000611797848285016116bf565b91505092915050565b7f4f6e6c7920646564696361746564206d73672e73656e64657200000000000000600082015250565b60006117d6601983611536565b91506117e1826117a0565b602082019050919050565b60006020820190508181036000830152611805816117c9565b9050919050565b6000604082019050611821600083018561128e565b61182e602083018461145e565b9392505050565b60006020828403121561184b5761184a6112c2565b5b600061185984828501611648565b91505092915050565b6000819050919050565b600061188761188261187d84611862565b611488565b611320565b9050919050565b6118978161186c565b82525050565b60006020820190506118b2600083018461188e565b92915050565b6000602082840312156118ce576118cd6112c2565b5b60006118dc848285016116aa565b91505092915050565b6118ee8161127c565b82525050565b600062ffffff82169050919050565b61190c816118f4565b82525050565b61191b81611320565b82525050565b61192a8161125c565b82525050565b6101008201600082015161194760008501826118e5565b50602082015161195a60208501826118e5565b50604082015161196d6040850182611903565b50606082015161198060608501826118e5565b5060808201516119936080850182611912565b5060a08201516119a660a0850182611912565b5060c08201516119b960c0850182611912565b5060e08201516119cc60e0850182611921565b50505050565b6000610100820190506119e86000830184611930565b92915050565b7f6f726465725f6578656375746564000000000000000000000000000000000000600082015250565b6000611a24600e83611536565b9150611a2f826119ee565b602082019050919050565b60006040820190508181036000830152611a5381611a17565b9050611a62602083018461145e565b92915050565b600069ffffffffffffffffffff82169050919050565b611a8781611a68565b8114611a9257600080fd5b50565b600081519050611aa481611a7e565b92915050565b611ab381611502565b8114611abe57600080fd5b50565b600081519050611ad081611aaa565b92915050565b600080600080600060a08688031215611af257611af16112c2565b5b6000611b0088828901611a95565b9550506020611b1188828901611ac1565b9450506040611b2288828901611648565b9350506060611b3388828901611648565b9250506080611b4488828901611a95565b9150509295509295909350565b60008060408385031215611b6857611b676112c2565b5b6000611b7685828601611648565b9250506020611b8785828601611633565b9150509250929050565b600081905092915050565b50565b6000611bac600083611b91565b9150611bb782611b9c565b600082019050919050565b6000611bcd82611b9f565b9150819050919050565b7f5f7472616e736665723a20455448207472616e73666572206661696c65640000600082015250565b6000611c0d601e83611536565b9150611c1882611bd7565b602082019050919050565b60006020820190508181036000830152611c3c81611c00565b9050919050565b7f5361666545524332303a204552433230206f7065726174696f6e20646964206e60008201527f6f74207375636365656400000000000000000000000000000000000000000000602082015250565b6000611c9f602a83611536565b9150611caa82611c43565b604082019050919050565b60006020820190508181036000830152611cce81611c92565b9050919050565b7f416464726573733a20696e73756666696369656e742062616c616e636520666f60008201527f722063616c6c0000000000000000000000000000000000000000000000000000602082015250565b6000611d31602683611536565b9150611d3c82611cd5565b604082019050919050565b60006020820190508181036000830152611d6081611d24565b9050919050565b6000611d728261139e565b611d7c8185611b91565b9350611d8c8185602086016113ba565b80840191505092915050565b6000611da48284611d67565b915081905092915050565b7f416464726573733a2063616c6c20746f206e6f6e2d636f6e7472616374000000600082015250565b6000611de5601d83611536565b9150611df082611daf565b602082019050919050565b60006020820190508181036000830152611e1481611dd8565b9050919050565b600081519050919050565b6000611e3182611e1b565b611e3b8185611536565b9350611e4b8185602086016113ba565b611e54816113e4565b840191505092915050565b60006020820190508181036000830152611e798184611e26565b90509291505056fea26469706673582212202812bfd45779eb218e22293a98e11cbb8930d6d0510b3e13972bdfbfd66e575a64736f6c63430008130033",
  "immutableReferences": {
    "1315": [
      {
        "length": 32,
        "start": 1158
      },
      {
        "length": 32,
        "start": 1618
      },
      {
        "length": 32,
        "start": 1875
      },
      {
        "length": 32,
        "start": 2221
      },
      {
        "length": 32,
        "start": 2406
      },
      {
        "length": 32,
        "start": 2604
      },
      {
        "length": 32,
        "start": 2994
      }
    ],
    "1318": [
      {
        "length": 32,
        "start": 2061
      },
      {
        "length": 32,
        "start": 2837
      }
    ],
    "1588": [
      {
        "length": 32,
        "start": 3211
      },
      {
        "length": 32,
        "start": 3425
      }
    ],
    "1590": [
      {
        "length": 32,
        "start": 532
      },
      {
        "length": 32,
        "start": 1412
      }
    ],
    "1592": [
      {
        "length": 32,
        "start": 3652
      },
      {
        "length": 32,
        "start": 3864
      }
    ]
  },
  "source": "// SPDX-License-Identifier: UNLICENSED\npragma solidity ^0.8.19;\n\nimport \"./gelato/OpsReady.sol\";\nimport \"./OrderBook.sol\";\nimport './LendingVault.sol';\nimport \"./uniswap/ISwapRouter.sol\";\nimport \"./oracles/chainlink/interface/AggregatorV3Interface.sol\";\n\ncontract OrderExecutor is OpsReady {\n\n    uint public price; // temporary, testing purposes only\n    address private deployer;\n\n    OrderBook private immutable orderBook;\n    ISwapRouter private immutable swapRouter;\n    LendingVault private lendingVault;\n    AggregatorV3Interface internal priceFeed;\n\n    event OrderDone(string, uint256);\n\n    modifier onlyDeployer {\n        require(msg.sender == deployer, \"Not allowed address.\");\n        _; // Continue the execution of the function called\n    }\n\n    constructor(address _ops, address _taskCreator, address _swapRouter, address _linkFeedAddress) OpsReady(_ops, _taskCreator) {\n        price = 100; // arbitrary price for testing\n        deployer = msg.sender;\n        orderBook = OrderBook(_taskCreator);\n        swapRouter = ISwapRouter(_swapRouter);\n        priceFeed = AggregatorV3Interface(_linkFeedAddress);\n    }\n\n    function setPrice(uint _price) public onlyDeployer {\n        price = _price;\n    }\n\n    receive() external payable {}\n\n    function setLendingVault(address _lendingVault) public onlyDeployer {\n        lendingVault = LendingVault(_lendingVault);\n    }\n\n    function executeOrder(uint orderNonce) external onlyDedicatedMsgSender {\n        // execute order with orderNonce here\n        uint256 amountWithdrawed = lendingVault.withdraw(orderBook.getOrder(orderNonce).tokenIn, orderNonce);\n\n        // Approving the appropriate amount that uniswap is gonna take on order to make the swap\n        IERC20(orderBook.getOrder(0).tokenIn).approve(address(swapRouter), amountWithdrawed);\n\n        (uint256 fee, address feeToken) = _getFeeDetails();\n        // Here we need to verify gasfees with an oracle (like chainlink)\n\n        // Here we should put an order that is swapping the needed amount of underleying asset to wrapped native token\n        // Then unwrap it to be able to send them to gelato node at the end of the function execution\n\n        // Naively set amountOutMinimum to 0. In production, use an oracle or other data source to choose a safer value for amountOutMinimum.\n        // We also set the sqrtPriceLimitx96 to be 0 to ensure we swap our exact input amount.\n        ISwapRouter.ExactInputSingleParams memory params =\n            ISwapRouter.ExactInputSingleParams({\n                tokenIn: orderBook.getOrder(orderNonce).tokenIn,\n                tokenOut: orderBook.getOrder(orderNonce).tokenOut,\n                fee: 3000, // For this example, we will set the pool fee to 0.3%.\n                recipient: orderBook.getOrder(orderNonce).user,\n                deadline: block.timestamp,\n                amountIn: amountWithdrawed,\n                amountOutMinimum: 0, // NOT IN PRODUCTION\n                sqrtPriceLimitX96: 0 // NOT IN PRODUCTION\n            });\n\n        // The call to `exactInputSingle` executes the swap.\n        swapRouter.exactInputSingle(params);\n\n        orderBook.setExecuted(orderNonce);\n        emit OrderDone(\"order_executed\", orderNonce);\n        \n        _transfer(fee, feeToken);\n    }\n\n    function checker(uint orderNonce) external view returns (bool canExec, bytes memory execPayload) {\n        canExec = orderBook.getOrder(orderNonce).price == price; // The condition that needs to be true for the task to be executed, you can filter the condition with the orderId\n        execPayload = abi.encodeCall(OrderExecutor.executeOrder, orderNonce); // The function that you want to call on the contract\n    }\n\n    // Only used for testing\n    function withdraw() public onlyDeployer {\n        payable(msg.sender).transfer(address(this).balance);\n    }\n\n    function getLatestWethPrice() external view returns (int) {\n        (\n            uint80 roundId,\n            int256 price,\n            uint256 startedAt,\n            uint256 updatedAt,\n            uint80 answeredInRound\n        ) = priceFeed.latestRoundData();\n        return price;\n    }\n\n    // Needs to be funded\n    /*\n    function getEthSpotPrice() external view returns(uint256) {\n        bytes memory _queryData = abi.encode(\"SpotPrice\", abi.encode(\"eth\", \"usd\"));\n        bytes32 _queryId = keccak256(_queryData);\n\n        (bytes memory _value, uint256 _timestampRetrieved) =\n            getDataBefore(_queryId, block.timestamp - 20 minutes);\n        if (_timestampRetrieved == 0) return 0;\n        require(block.timestamp - _timestampRetrieved < 24 hours);\n        return abi.decode(_value, (uint256));\n    }\n    */\n\n}\n",
  "sourcePath": "/Users/blabla/Documents/gelato_test/contracts/OrderExecutor.sol",
  "compiler": {
    "name": "solc",
    "version": "0.8.19+commit.7dd6d404.Emscripten.clang"
  },
  "schemaVersion": "3.4.11",
  "updatedAt": "2023-03-05T13:43:46.665Z",
  "networkType": "ethereum",
  "devdoc": {
    "kind": "dev",
    "methods": {},
    "version": 1
  },
  "userdoc": {
    "kind": "user",
    "methods": {},
    "version": 1
  }
}