{
  "contractName": "OrderExecutor",
  "abi": [
    {
      "inputs": [
        {
          "internalType": "address",
          "name": "_ops",
          "type": "address"
        },
        {
          "internalType": "address",
          "name": "_taskCreator",
          "type": "address"
        },
        {
          "internalType": "address",
          "name": "_swapRouter",
          "type": "address"
        },
        {
          "internalType": "address",
          "name": "_linkFeedAddress",
          "type": "address"
        }
      ],
      "stateMutability": "nonpayable",
      "type": "constructor"
    },
    {
      "anonymous": false,
      "inputs": [
        {
          "indexed": false,
          "internalType": "string",
          "name": "",
          "type": "string"
        },
        {
          "indexed": false,
          "internalType": "int256",
          "name": "",
          "type": "int256"
        }
      ],
      "name": "OrderDone",
      "type": "event"
    },
    {
      "inputs": [],
      "name": "dedicatedMsgSender",
      "outputs": [
        {
          "internalType": "address",
          "name": "",
          "type": "address"
        }
      ],
      "stateMutability": "view",
      "type": "function"
    },
    {
      "inputs": [],
      "name": "ops",
      "outputs": [
        {
          "internalType": "contract IOps",
          "name": "",
          "type": "address"
        }
      ],
      "stateMutability": "view",
      "type": "function"
    },
    {
      "inputs": [],
      "name": "price",
      "outputs": [
        {
          "internalType": "int256",
          "name": "",
          "type": "int256"
        }
      ],
      "stateMutability": "view",
      "type": "function"
    },
    {
      "stateMutability": "payable",
      "type": "receive"
    },
    {
      "inputs": [
        {
          "internalType": "int256",
          "name": "_price",
          "type": "int256"
        }
      ],
      "name": "setPrice",
      "outputs": [],
      "stateMutability": "nonpayable",
      "type": "function"
    },
    {
      "inputs": [
        {
          "internalType": "address",
          "name": "_lendingVault",
          "type": "address"
        }
      ],
      "name": "setLendingVault",
      "outputs": [],
      "stateMutability": "nonpayable",
      "type": "function"
    },
    {
      "inputs": [
        {
          "internalType": "int256",
          "name": "orderNonce",
          "type": "int256"
        }
      ],
      "name": "executeOrder",
      "outputs": [],
      "stateMutability": "nonpayable",
      "type": "function"
    },
    {
      "inputs": [
        {
          "internalType": "int256",
          "name": "orderNonce",
          "type": "int256"
        }
      ],
      "name": "checker",
      "outputs": [
        {
          "internalType": "bool",
          "name": "canExec",
          "type": "bool"
        },
        {
          "internalType": "bytes",
          "name": "execPayload",
          "type": "bytes"
        }
      ],
      "stateMutability": "view",
      "type": "function"
    },
    {
      "inputs": [],
      "name": "withdraw",
      "outputs": [],
      "stateMutability": "nonpayable",
      "type": "function"
    },
    {
      "inputs": [],
      "name": "getLatestWethPrice",
      "outputs": [
        {
          "internalType": "int256",
          "name": "",
          "type": "int256"
        },
        {
          "internalType": "uint8",
          "name": "",
          "type": "uint8"
        }
      ],
      "stateMutability": "view",
      "type": "function"
    }
  ],
  "bytecode": "0x6101206040523480156200001257600080fd5b50604051620025a3380380620025a3833981810160405281019062000038919062000343565b83838173ffffffffffffffffffffffffffffffffffffffff1660808173ffffffffffffffffffffffffffffffffffffffff16815250508173ffffffffffffffffffffffffffffffffffffffff1663573ea5756040518163ffffffff1660e01b8152600401602060405180830381865afa158015620000ba573d6000803e3d6000fd5b505050506040513d601f19601f82011682018060405250810190620000e09190620003fa565b73ffffffffffffffffffffffffffffffffffffffff1660c08173ffffffffffffffffffffffffffffffffffffffff168152505073c815db16d4be6ddf2685c201937905abf338f5d773ffffffffffffffffffffffffffffffffffffffff1663ded89a7c826040518263ffffffff1660e01b81526004016200016291906200043d565b6040805180830381865afa1580156200017f573d6000803e3d6000fd5b505050506040513d601f19601f82011682018060405250810190620001a5919062000497565b508073ffffffffffffffffffffffffffffffffffffffff1660a09073ffffffffffffffffffffffffffffffffffffffff16815250505050606460008190555033600160006101000a81548173ffffffffffffffffffffffffffffffffffffffff021916908373ffffffffffffffffffffffffffffffffffffffff1602179055508273ffffffffffffffffffffffffffffffffffffffff1660e08173ffffffffffffffffffffffffffffffffffffffff16815250508173ffffffffffffffffffffffffffffffffffffffff166101008173ffffffffffffffffffffffffffffffffffffffff168152505080600360006101000a81548173ffffffffffffffffffffffffffffffffffffffff021916908373ffffffffffffffffffffffffffffffffffffffff16021790555050505050620004de565b600080fd5b600073ffffffffffffffffffffffffffffffffffffffff82169050919050565b60006200030b82620002de565b9050919050565b6200031d81620002fe565b81146200032957600080fd5b50565b6000815190506200033d8162000312565b92915050565b6000806000806080858703121562000360576200035f620002d9565b5b600062000370878288016200032c565b945050602062000383878288016200032c565b935050604062000396878288016200032c565b9250506060620003a9878288016200032c565b91505092959194509250565b6000620003c282620002de565b9050919050565b620003d481620003b5565b8114620003e057600080fd5b50565b600081519050620003f481620003c9565b92915050565b600060208284031215620004135762000412620002d9565b5b60006200042384828501620003e3565b91505092915050565b6200043781620002fe565b82525050565b60006020820190506200045460008301846200042c565b92915050565b60008115159050919050565b62000471816200045a565b81146200047d57600080fd5b50565b600081519050620004918162000466565b92915050565b60008060408385031215620004b157620004b0620002d9565b5b6000620004c1858286016200032c565b9250506020620004d48582860162000480565b9150509250929050565b60805160a05160c05160e0516101005161203a62000569600039600081816107b90152610ac101526000818161040c015281816105fe015281816106ff0152818161085901528181610912015281816109d80152610b5e015260008181610eee0152610fc2015260008181610215015261053001526000818161050c0152610e0b015261203a6000f3fe60806040526004361061008a5760003560e01c8063c0d6649611610059578063c0d664961461012c578063e70abe921461016a578063ecd3020614610195578063f287573f146101be578063f7a30806146101ea57610091565b806328f150eb146100965780633ccfd60b146100c1578063408a03d8146100d8578063a035b1fe1461010157610091565b3661009157005b600080fd5b3480156100a257600080fd5b506100ab610213565b6040516100b89190611347565b60405180910390f35b3480156100cd57600080fd5b506100d6610237565b005b3480156100e457600080fd5b506100ff60048036038101906100fa919061139d565b610310565b005b34801561010d57600080fd5b506101166103e4565b60405161012391906113e3565b60405180910390f35b34801561013857600080fd5b50610153600480360381019061014e919061142a565b6103ea565b604051610161929190611502565b60405180910390f35b34801561017657600080fd5b5061017f61050a565b60405161018c9190611591565b60405180910390f35b3480156101a157600080fd5b506101bc60048036038101906101b7919061142a565b61052e565b005b3480156101ca57600080fd5b506101d3610c2f565b6040516101e19291906115c8565b60405180910390f35b3480156101f657600080fd5b50610211600480360381019061020c919061142a565b610d6c565b005b7f000000000000000000000000000000000000000000000000000000000000000081565b600160009054906101000a900473ffffffffffffffffffffffffffffffffffffffff1673ffffffffffffffffffffffffffffffffffffffff163373ffffffffffffffffffffffffffffffffffffffff16146102c7576040517f08c379a00000000000000000000000000000000000000000000000000000000081526004016102be9061164e565b60405180910390fd5b3373ffffffffffffffffffffffffffffffffffffffff166108fc479081150290604051600060405180830381858888f1935050505015801561030d573d6000803e3d6000fd5b50565b600160009054906101000a900473ffffffffffffffffffffffffffffffffffffffff1673ffffffffffffffffffffffffffffffffffffffff163373ffffffffffffffffffffffffffffffffffffffff16146103a0576040517f08c379a00000000000000000000000000000000000000000000000000000000081526004016103979061164e565b60405180910390fd5b80600260006101000a81548173ffffffffffffffffffffffffffffffffffffffff021916908373ffffffffffffffffffffffffffffffffffffffff16021790555050565b60005481565b6000606060006103f8610c2f565b5080915050600081600054131590506000547f000000000000000000000000000000000000000000000000000000000000000073ffffffffffffffffffffffffffffffffffffffff1663052b60b0876040518263ffffffff1660e01b815260040161046391906113e3565b60e060405180830381865afa158015610480573d6000803e3d6000fd5b505050506040513d601f19601f820116820180604052508101906104a4919061182e565b60200151149350846040516024016104bc91906113e3565b60405160208183030381529060405263ecd3020660e01b6020820180517bffffffffffffffffffffffffffffffffffffffffffffffffffffffff838183161783525050505092505050915091565b7f000000000000000000000000000000000000000000000000000000000000000081565b7f000000000000000000000000000000000000000000000000000000000000000073ffffffffffffffffffffffffffffffffffffffff163373ffffffffffffffffffffffffffffffffffffffff16146105bc576040517f08c379a00000000000000000000000000000000000000000000000000000000081526004016105b3906118a7565b60405180910390fd5b6000600260009054906101000a900473ffffffffffffffffffffffffffffffffffffffff1673ffffffffffffffffffffffffffffffffffffffff16637da7d3f17f000000000000000000000000000000000000000000000000000000000000000073ffffffffffffffffffffffffffffffffffffffff1663052b60b0856040518263ffffffff1660e01b815260040161065591906113e3565b60e060405180830381865afa158015610672573d6000803e3d6000fd5b505050506040513d601f19601f82011682018060405250810190610696919061182e565b60600151846040518363ffffffff1660e01b81526004016106b89291906118c7565b6020604051808303816000875af11580156106d7573d6000803e3d6000fd5b505050506040513d601f19601f820116820180604052508101906106fb91906118f0565b90507f000000000000000000000000000000000000000000000000000000000000000073ffffffffffffffffffffffffffffffffffffffff1663052b60b060006040518263ffffffff1660e01b81526004016107579190611958565b60e060405180830381865afa158015610774573d6000803e3d6000fd5b505050506040513d601f19601f82011682018060405250810190610798919061182e565b6060015173ffffffffffffffffffffffffffffffffffffffff1663095ea7b37f0000000000000000000000000000000000000000000000000000000000000000836040518363ffffffff1660e01b81526004016107f692919061198c565b6020604051808303816000875af1158015610815573d6000803e3d6000fd5b505050506040513d601f19601f8201168201806040525081019061083991906119b5565b50600080610845610e06565b9150915060006040518061010001604052807f000000000000000000000000000000000000000000000000000000000000000073ffffffffffffffffffffffffffffffffffffffff1663052b60b0886040518263ffffffff1660e01b81526004016108b091906113e3565b60e060405180830381865afa1580156108cd573d6000803e3d6000fd5b505050506040513d601f19601f820116820180604052508101906108f1919061182e565b6060015173ffffffffffffffffffffffffffffffffffffffff1681526020017f000000000000000000000000000000000000000000000000000000000000000073ffffffffffffffffffffffffffffffffffffffff1663052b60b0886040518263ffffffff1660e01b815260040161096991906113e3565b60e060405180830381865afa158015610986573d6000803e3d6000fd5b505050506040513d601f19601f820116820180604052508101906109aa919061182e565b6080015173ffffffffffffffffffffffffffffffffffffffff168152602001610bb862ffffff1681526020017f000000000000000000000000000000000000000000000000000000000000000073ffffffffffffffffffffffffffffffffffffffff1663052b60b0886040518263ffffffff1660e01b8152600401610a2f91906113e3565b60e060405180830381865afa158015610a4c573d6000803e3d6000fd5b505050506040513d601f19601f82011682018060405250810190610a70919061182e565b6000015173ffffffffffffffffffffffffffffffffffffffff16815260200142815260200185815260200160008152602001600073ffffffffffffffffffffffffffffffffffffffff1681525090507f000000000000000000000000000000000000000000000000000000000000000073ffffffffffffffffffffffffffffffffffffffff1663414bf389826040518263ffffffff1660e01b8152600401610b189190611acf565b6020604051808303816000875af1158015610b37573d6000803e3d6000fd5b505050506040513d601f19601f82011682018060405250810190610b5b9190611b17565b507f000000000000000000000000000000000000000000000000000000000000000073ffffffffffffffffffffffffffffffffffffffff1663f51b6963866040518263ffffffff1660e01b8152600401610bb591906113e3565b600060405180830381600087803b158015610bcf57600080fd5b505af1158015610be3573d6000803e3d6000fd5b505050507f5f2a1ec35caf607c9fed8a772f247ad13895245e5216960e21c81f2f6e1556bb85604051610c169190611b90565b60405180910390a1610c288383610ea3565b5050505050565b6000806000600360009054906101000a900473ffffffffffffffffffffffffffffffffffffffff1673ffffffffffffffffffffffffffffffffffffffff1663feaf968c6040518163ffffffff1660e01b815260040160a060405180830381865afa158015610ca1573d6000803e3d6000fd5b505050506040513d601f19601f82011682018060405250810190610cc59190611c00565b5050509150506000600360009054906101000a900473ffffffffffffffffffffffffffffffffffffffff1673ffffffffffffffffffffffffffffffffffffffff1663313ce5676040518163ffffffff1660e01b8152600401602060405180830381865afa158015610d3a573d6000803e3d6000fd5b505050506040513d601f19601f82011682018060405250810190610d5e9190611ca7565b905081819350935050509091565b600160009054906101000a900473ffffffffffffffffffffffffffffffffffffffff1673ffffffffffffffffffffffffffffffffffffffff163373ffffffffffffffffffffffffffffffffffffffff1614610dfc576040517f08c379a0000000000000000000000000000000000000000000000000000000008152600401610df39061164e565b60405180910390fd5b8060008190555050565b6000807f000000000000000000000000000000000000000000000000000000000000000073ffffffffffffffffffffffffffffffffffffffff1663b810c6366040518163ffffffff1660e01b81526004016040805180830381865afa158015610e73573d6000803e3d6000fd5b505050506040513d601f19601f82011682018060405250810190610e979190611cd4565b80925081935050509091565b73eeeeeeeeeeeeeeeeeeeeeeeeeeeeeeeeeeeeeeee73ffffffffffffffffffffffffffffffffffffffff168173ffffffffffffffffffffffffffffffffffffffff1603610fbc5760007f000000000000000000000000000000000000000000000000000000000000000073ffffffffffffffffffffffffffffffffffffffff1683604051610f3090611d45565b60006040518083038185875af1925050503d8060008114610f6d576040519150601f19603f3d011682016040523d82523d6000602084013e610f72565b606091505b5050905080610fb6576040517f08c379a0000000000000000000000000000000000000000000000000000000008152600401610fad90611da6565b60405180910390fd5b50610fe8565b610fe7817f000000000000000000000000000000000000000000000000000000000000000084610fec565b5b5050565b61106d8363a9059cbb60e01b848460405160240161100b92919061198c565b604051602081830303815290604052907bffffffffffffffffffffffffffffffffffffffffffffffffffffffff19166020820180517bffffffffffffffffffffffffffffffffffffffffffffffffffffffff8381831617835250505050611072565b505050565b60006110d4826040518060400160405280602081526020017f5361666545524332303a206c6f772d6c6576656c2063616c6c206661696c65648152508573ffffffffffffffffffffffffffffffffffffffff166111399092919063ffffffff16565b905060008151111561113457808060200190518101906110f491906119b5565b611133576040517f08c379a000000000000000000000000000000000000000000000000000000000815260040161112a90611e38565b60405180910390fd5b5b505050565b60606111488484600085611151565b90509392505050565b606082471015611196576040517f08c379a000000000000000000000000000000000000000000000000000000000815260040161118d90611eca565b60405180910390fd5b6000808673ffffffffffffffffffffffffffffffffffffffff1685876040516111bf9190611f1b565b60006040518083038185875af1925050503d80600081146111fc576040519150601f19603f3d011682016040523d82523d6000602084013e611201565b606091505b50915091506112128783838761121e565b92505050949350505050565b606083156112805760008351036112785761123885611293565b611277576040517f08c379a000000000000000000000000000000000000000000000000000000000815260040161126e90611f7e565b60405180910390fd5b5b82905061128b565b61128a83836112b6565b5b949350505050565b6000808273ffffffffffffffffffffffffffffffffffffffff163b119050919050565b6000825111156112c95781518083602001fd5b806040517f08c379a00000000000000000000000000000000000000000000000000000000081526004016112fd9190611fe2565b60405180910390fd5b600073ffffffffffffffffffffffffffffffffffffffff82169050919050565b600061133182611306565b9050919050565b61134181611326565b82525050565b600060208201905061135c6000830184611338565b92915050565b6000604051905090565b600080fd5b61137a81611326565b811461138557600080fd5b50565b60008135905061139781611371565b92915050565b6000602082840312156113b3576113b261136c565b5b60006113c184828501611388565b91505092915050565b6000819050919050565b6113dd816113ca565b82525050565b60006020820190506113f860008301846113d4565b92915050565b611407816113ca565b811461141257600080fd5b50565b600081359050611424816113fe565b92915050565b6000602082840312156114405761143f61136c565b5b600061144e84828501611415565b91505092915050565b60008115159050919050565b61146c81611457565b82525050565b600081519050919050565b600082825260208201905092915050565b60005b838110156114ac578082015181840152602081019050611491565b60008484015250505050565b6000601f19601f8301169050919050565b60006114d482611472565b6114de818561147d565b93506114ee81856020860161148e565b6114f7816114b8565b840191505092915050565b60006040820190506115176000830185611463565b818103602083015261152981846114c9565b90509392505050565b6000819050919050565b600061155761155261154d84611306565b611532565b611306565b9050919050565b60006115698261153c565b9050919050565b600061157b8261155e565b9050919050565b61158b81611570565b82525050565b60006020820190506115a66000830184611582565b92915050565b600060ff82169050919050565b6115c2816115ac565b82525050565b60006040820190506115dd60008301856113d4565b6115ea60208301846115b9565b9392505050565b600082825260208201905092915050565b7f4e6f7420616c6c6f77656420616464726573732e000000000000000000000000600082015250565b60006116386014836115f1565b915061164382611602565b602082019050919050565b600060208201905081810360008301526116678161162b565b9050919050565b600080fd5b7f4e487b7100000000000000000000000000000000000000000000000000000000600052604160045260246000fd5b6116ab826114b8565b810181811067ffffffffffffffff821117156116ca576116c9611673565b5b80604052505050565b60006116dd611362565b90506116e982826116a2565b919050565b6000815190506116fd81611371565b92915050565b600081519050611712816113fe565b92915050565b6000819050919050565b61172b81611718565b811461173657600080fd5b50565b60008151905061174881611722565b92915050565b61175781611457565b811461176257600080fd5b50565b6000815190506117748161174e565b92915050565b600060e082840312156117905761178f61166e565b5b61179a60e06116d3565b905060006117aa848285016116ee565b60008301525060206117be84828501611703565b60208301525060406117d284828501611703565b60408301525060606117e6848285016116ee565b60608301525060806117fa848285016116ee565b60808301525060a061180e84828501611739565b60a08301525060c061182284828501611765565b60c08301525092915050565b600060e082840312156118445761184361136c565b5b60006118528482850161177a565b91505092915050565b7f4f6e6c7920646564696361746564206d73672e73656e64657200000000000000600082015250565b60006118916019836115f1565b915061189c8261185b565b602082019050919050565b600060208201905081810360008301526118c081611884565b9050919050565b60006040820190506118dc6000830185611338565b6118e960208301846113d4565b9392505050565b6000602082840312156119065761190561136c565b5b600061191484828501611703565b91505092915050565b6000819050919050565b600061194261193d6119388461191d565b611532565b6113ca565b9050919050565b61195281611927565b82525050565b600060208201905061196d6000830184611949565b92915050565b6000819050919050565b61198681611973565b82525050565b60006040820190506119a16000830185611338565b6119ae602083018461197d565b9392505050565b6000602082840312156119cb576119ca61136c565b5b60006119d984828501611765565b91505092915050565b6119eb81611326565b82525050565b600062ffffff82169050919050565b611a09816119f1565b82525050565b611a1881611973565b82525050565b611a2781611306565b82525050565b61010082016000820151611a4460008501826119e2565b506020820151611a5760208501826119e2565b506040820151611a6a6040850182611a00565b506060820151611a7d60608501826119e2565b506080820151611a906080850182611a0f565b5060a0820151611aa360a0850182611a0f565b5060c0820151611ab660c0850182611a0f565b5060e0820151611ac960e0850182611a1e565b50505050565b600061010082019050611ae56000830184611a2d565b92915050565b611af481611973565b8114611aff57600080fd5b50565b600081519050611b1181611aeb565b92915050565b600060208284031215611b2d57611b2c61136c565b5b6000611b3b84828501611b02565b91505092915050565b7f6f726465725f6578656375746564000000000000000000000000000000000000600082015250565b6000611b7a600e836115f1565b9150611b8582611b44565b602082019050919050565b60006040820190508181036000830152611ba981611b6d565b9050611bb860208301846113d4565b92915050565b600069ffffffffffffffffffff82169050919050565b611bdd81611bbe565b8114611be857600080fd5b50565b600081519050611bfa81611bd4565b92915050565b600080600080600060a08688031215611c1c57611c1b61136c565b5b6000611c2a88828901611beb565b9550506020611c3b88828901611703565b9450506040611c4c88828901611b02565b9350506060611c5d88828901611b02565b9250506080611c6e88828901611beb565b9150509295509295909350565b611c84816115ac565b8114611c8f57600080fd5b50565b600081519050611ca181611c7b565b92915050565b600060208284031215611cbd57611cbc61136c565b5b6000611ccb84828501611c92565b91505092915050565b60008060408385031215611ceb57611cea61136c565b5b6000611cf985828601611b02565b9250506020611d0a858286016116ee565b9150509250929050565b600081905092915050565b50565b6000611d2f600083611d14565b9150611d3a82611d1f565b600082019050919050565b6000611d5082611d22565b9150819050919050565b7f5f7472616e736665723a20455448207472616e73666572206661696c65640000600082015250565b6000611d90601e836115f1565b9150611d9b82611d5a565b602082019050919050565b60006020820190508181036000830152611dbf81611d83565b9050919050565b7f5361666545524332303a204552433230206f7065726174696f6e20646964206e60008201527f6f74207375636365656400000000000000000000000000000000000000000000602082015250565b6000611e22602a836115f1565b9150611e2d82611dc6565b604082019050919050565b60006020820190508181036000830152611e5181611e15565b9050919050565b7f416464726573733a20696e73756666696369656e742062616c616e636520666f60008201527f722063616c6c0000000000000000000000000000000000000000000000000000602082015250565b6000611eb46026836115f1565b9150611ebf82611e58565b604082019050919050565b60006020820190508181036000830152611ee381611ea7565b9050919050565b6000611ef582611472565b611eff8185611d14565b9350611f0f81856020860161148e565b80840191505092915050565b6000611f278284611eea565b915081905092915050565b7f416464726573733a2063616c6c20746f206e6f6e2d636f6e7472616374000000600082015250565b6000611f68601d836115f1565b9150611f7382611f32565b602082019050919050565b60006020820190508181036000830152611f9781611f5b565b9050919050565b600081519050919050565b6000611fb482611f9e565b611fbe81856115f1565b9350611fce81856020860161148e565b611fd7816114b8565b840191505092915050565b60006020820190508181036000830152611ffc8184611fa9565b90509291505056fea2646970667358221220ce0abf6cca3226c9992b4da6114e4591aa625f1a8a21969b7d2f512187b3847c64736f6c63430008130033",
  "immutableReferences": {
    "1339": [
      {
        "length": 32,
        "start": 1036
      },
      {
        "length": 32,
        "start": 1534
      },
      {
        "length": 32,
        "start": 1791
      },
      {
        "length": 32,
        "start": 2137
      },
      {
        "length": 32,
        "start": 2322
      },
      {
        "length": 32,
        "start": 2520
      },
      {
        "length": 32,
        "start": 2910
      }
    ],
    "1342": [
      {
        "length": 32,
        "start": 1977
      },
      {
        "length": 32,
        "start": 2753
      }
    ],
    "1638": [
      {
        "length": 32,
        "start": 1292
      },
      {
        "length": 32,
        "start": 3595
      }
    ],
    "1640": [
      {
        "length": 32,
        "start": 533
      },
      {
        "length": 32,
        "start": 1328
      }
    ],
    "1642": [
      {
        "length": 32,
        "start": 3822
      },
      {
        "length": 32,
        "start": 4034
      }
    ]
  },
  "source": "// SPDX-License-Identifier: UNLICENSED\npragma solidity ^0.8.19;\n\nimport \"./gelato/OpsReady.sol\";\nimport \"./OrderBook.sol\";\nimport './LendingVault.sol';\nimport \"./uniswap/ISwapRouter.sol\";\nimport \"./oracles/chainlink/interface/AggregatorV3Interface.sol\";\n\ncontract OrderExecutor is OpsReady {\n\n    int256 public price; // temporary, testing purposes only\n    address private deployer;\n\n    OrderBook private immutable orderBook;\n    ISwapRouter private immutable swapRouter;\n    LendingVault private lendingVault;\n    AggregatorV3Interface internal priceFeed;\n\n    event OrderDone(string, int256);\n\n    modifier onlyDeployer {\n        require(msg.sender == deployer, \"Not allowed address.\");\n        _; // Continue the execution of the function called\n    }\n\n    constructor(address _ops, address _taskCreator, address _swapRouter, address _linkFeedAddress) OpsReady(_ops, _taskCreator) {\n        price = 100; // arbitrary price for testing\n        deployer = msg.sender;\n        orderBook = OrderBook(_taskCreator);\n        swapRouter = ISwapRouter(_swapRouter);\n        priceFeed = AggregatorV3Interface(_linkFeedAddress);\n    }\n\n    function setPrice(int _price) public onlyDeployer {\n        price = _price;\n    }\n\n    receive() external payable {}\n\n    function setLendingVault(address _lendingVault) public onlyDeployer {\n        lendingVault = LendingVault(_lendingVault);\n    }\n\n    function executeOrder(int orderNonce) external onlyDedicatedMsgSender {\n        // execute order with orderNonce here\n        int256 amountWithdrawed = lendingVault.withdraw(orderBook.getOrder(orderNonce).tokenIn, orderNonce);\n\n        // Approving the appropriate amount that uniswap is gonna take on order to make the swap\n        IERC20(orderBook.getOrder(0).tokenIn).approve(address(swapRouter), uint256(amountWithdrawed));\n\n        (uint256 fee, address feeToken) = _getFeeDetails();\n        // Here we need to verify gasfees with an oracle (like chainlink)\n\n        // Here we should put an order that is swapping the needed amount of underleying asset to wrapped native token\n        // Then unwrap it to be able to send them to gelato node at the end of the function execution\n\n        // Naively set amountOutMinimum to 0. In production, use an oracle or other data source to choose a safer value for amountOutMinimum.\n        // We also set the sqrtPriceLimitx96 to be 0 to ensure we swap our exact input amount.\n        ISwapRouter.ExactInputSingleParams memory params =\n            ISwapRouter.ExactInputSingleParams({\n                tokenIn: orderBook.getOrder(orderNonce).tokenIn,\n                tokenOut: orderBook.getOrder(orderNonce).tokenOut,\n                fee: 3000, // For this example, we will set the pool fee to 0.3%.\n                recipient: orderBook.getOrder(orderNonce).user,\n                deadline: block.timestamp,\n                amountIn: uint256(amountWithdrawed),\n                amountOutMinimum: 0, // NOT IN PRODUCTION\n                sqrtPriceLimitX96: 0 // NOT IN PRODUCTION\n            });\n\n        // The call to `exactInputSingle` executes the swap.\n        swapRouter.exactInputSingle(params);\n\n        orderBook.setExecuted(orderNonce);\n        emit OrderDone(\"order_executed\", orderNonce);\n        \n        _transfer(uint256(fee), feeToken);\n    }\n\n    function checker(int orderNonce) external view returns (bool canExec, bytes memory execPayload) {\n        // In a real situation, we should get the price from the aggregator (or here from uniswap) + an oracle to confirm the price\n        // (we could even ask to the user if he/she wants the oracle confirmation) \n        // uint8 decimals;\n        // (decimals, ) = getLatestWethPrice(); // Not useful if the value is in the correct format\n        int256 oraclePrice;\n        (oraclePrice, ) = getLatestWethPrice();\n        bool condition = price <= oraclePrice;\n        canExec = /*condition*/ orderBook.getOrder(orderNonce).price == price; // The condition that needs to be true for the task to be executed, you can filter the condition with the orderId\n        execPayload = abi.encodeCall(OrderExecutor.executeOrder, orderNonce); // The function that you want to call on the contract\n    }\n\n    // Only used for testing\n    function withdraw() public onlyDeployer {\n        payable(msg.sender).transfer(address(this).balance);\n    }\n\n    function getLatestWethPrice() public view returns (int, uint8) {\n        (, int256 _price, , , ) = priceFeed.latestRoundData();\n        uint8 decimals = priceFeed.decimals();\n        return (_price, decimals);\n    }\n\n    // Needs to be funded ?\n    /*\n    function getEthSpotPrice() external view returns(uint256) {\n        bytes memory _queryData = abi.encode(\"SpotPrice\", abi.encode(\"eth\", \"usd\"));\n        bytes32 _queryId = keccak256(_queryData);\n\n        (bytes memory _value, uint256 _timestampRetrieved) =\n            getDataBefore(_queryId, block.timestamp - 20 minutes);\n        if (_timestampRetrieved == 0) return 0;\n        require(block.timestamp - _timestampRetrieved < 24 hours);\n        return abi.decode(_value, (uint256));\n    }\n    */\n\n}\n",
  "sourcePath": "/Users/blabla/Documents/gelato_test/contracts/OrderExecutor.sol",
  "compiler": {
    "name": "solc",
    "version": "0.8.19+commit.7dd6d404.Emscripten.clang"
  },
  "schemaVersion": "3.4.11",
  "updatedAt": "2023-03-05T14:29:32.165Z",
  "devdoc": {
    "kind": "dev",
    "methods": {},
    "version": 1
  },
  "userdoc": {
    "kind": "user",
    "methods": {},
    "version": 1
  }
}