{
  "contractName": "OrderExecutor",
  "abi": [
    {
      "inputs": [
        {
          "internalType": "address",
          "name": "_ops",
          "type": "address"
        },
        {
          "internalType": "address",
          "name": "_taskCreator",
          "type": "address"
        },
        {
          "internalType": "address",
          "name": "_swapRouter",
          "type": "address"
        },
        {
          "internalType": "address payable",
          "name": "_tellorAddress",
          "type": "address"
        }
      ],
      "stateMutability": "nonpayable",
      "type": "constructor"
    },
    {
      "anonymous": false,
      "inputs": [
        {
          "indexed": false,
          "internalType": "string",
          "name": "",
          "type": "string"
        },
        {
          "indexed": false,
          "internalType": "uint256",
          "name": "",
          "type": "uint256"
        }
      ],
      "name": "OrderDone",
      "type": "event"
    },
    {
      "inputs": [],
      "name": "dedicatedMsgSender",
      "outputs": [
        {
          "internalType": "address",
          "name": "",
          "type": "address"
        }
      ],
      "stateMutability": "view",
      "type": "function",
      "constant": true
    },
    {
      "inputs": [
        {
          "internalType": "bytes32",
          "name": "_queryId",
          "type": "bytes32"
        },
        {
          "internalType": "uint256",
          "name": "_timestamp",
          "type": "uint256"
        }
      ],
      "name": "getDataAfter",
      "outputs": [
        {
          "internalType": "bytes",
          "name": "_value",
          "type": "bytes"
        },
        {
          "internalType": "uint256",
          "name": "_timestampRetrieved",
          "type": "uint256"
        }
      ],
      "stateMutability": "view",
      "type": "function",
      "constant": true
    },
    {
      "inputs": [
        {
          "internalType": "bytes32",
          "name": "_queryId",
          "type": "bytes32"
        },
        {
          "internalType": "uint256",
          "name": "_timestamp",
          "type": "uint256"
        }
      ],
      "name": "getDataBefore",
      "outputs": [
        {
          "internalType": "bytes",
          "name": "_value",
          "type": "bytes"
        },
        {
          "internalType": "uint256",
          "name": "_timestampRetrieved",
          "type": "uint256"
        }
      ],
      "stateMutability": "view",
      "type": "function",
      "constant": true
    },
    {
      "inputs": [
        {
          "internalType": "bytes32",
          "name": "_queryId",
          "type": "bytes32"
        },
        {
          "internalType": "uint256",
          "name": "_timestamp",
          "type": "uint256"
        }
      ],
      "name": "getIndexForDataAfter",
      "outputs": [
        {
          "internalType": "bool",
          "name": "_found",
          "type": "bool"
        },
        {
          "internalType": "uint256",
          "name": "_index",
          "type": "uint256"
        }
      ],
      "stateMutability": "view",
      "type": "function",
      "constant": true
    },
    {
      "inputs": [
        {
          "internalType": "bytes32",
          "name": "_queryId",
          "type": "bytes32"
        },
        {
          "internalType": "uint256",
          "name": "_timestamp",
          "type": "uint256"
        }
      ],
      "name": "getIndexForDataBefore",
      "outputs": [
        {
          "internalType": "bool",
          "name": "_found",
          "type": "bool"
        },
        {
          "internalType": "uint256",
          "name": "_index",
          "type": "uint256"
        }
      ],
      "stateMutability": "view",
      "type": "function",
      "constant": true
    },
    {
      "inputs": [
        {
          "internalType": "bytes32",
          "name": "_queryId",
          "type": "bytes32"
        },
        {
          "internalType": "uint256",
          "name": "_timestamp",
          "type": "uint256"
        },
        {
          "internalType": "uint256",
          "name": "_maxAge",
          "type": "uint256"
        },
        {
          "internalType": "uint256",
          "name": "_maxCount",
          "type": "uint256"
        }
      ],
      "name": "getMultipleValuesBefore",
      "outputs": [
        {
          "internalType": "bytes[]",
          "name": "_values",
          "type": "bytes[]"
        },
        {
          "internalType": "uint256[]",
          "name": "_timestamps",
          "type": "uint256[]"
        }
      ],
      "stateMutability": "view",
      "type": "function",
      "constant": true
    },
    {
      "inputs": [
        {
          "internalType": "bytes32",
          "name": "_queryId",
          "type": "bytes32"
        }
      ],
      "name": "getNewValueCountbyQueryId",
      "outputs": [
        {
          "internalType": "uint256",
          "name": "",
          "type": "uint256"
        }
      ],
      "stateMutability": "view",
      "type": "function",
      "constant": true
    },
    {
      "inputs": [
        {
          "internalType": "bytes32",
          "name": "_queryId",
          "type": "bytes32"
        },
        {
          "internalType": "uint256",
          "name": "_timestamp",
          "type": "uint256"
        }
      ],
      "name": "getReporterByTimestamp",
      "outputs": [
        {
          "internalType": "address",
          "name": "",
          "type": "address"
        }
      ],
      "stateMutability": "view",
      "type": "function",
      "constant": true
    },
    {
      "inputs": [
        {
          "internalType": "bytes32",
          "name": "_queryId",
          "type": "bytes32"
        },
        {
          "internalType": "uint256",
          "name": "_index",
          "type": "uint256"
        }
      ],
      "name": "getTimestampbyQueryIdandIndex",
      "outputs": [
        {
          "internalType": "uint256",
          "name": "",
          "type": "uint256"
        }
      ],
      "stateMutability": "view",
      "type": "function",
      "constant": true
    },
    {
      "inputs": [],
      "name": "idMappingContract",
      "outputs": [
        {
          "internalType": "contract IMappingContract",
          "name": "",
          "type": "address"
        }
      ],
      "stateMutability": "view",
      "type": "function",
      "constant": true
    },
    {
      "inputs": [
        {
          "internalType": "bytes32",
          "name": "_queryId",
          "type": "bytes32"
        },
        {
          "internalType": "uint256",
          "name": "_timestamp",
          "type": "uint256"
        }
      ],
      "name": "isInDispute",
      "outputs": [
        {
          "internalType": "bool",
          "name": "",
          "type": "bool"
        }
      ],
      "stateMutability": "view",
      "type": "function",
      "constant": true
    },
    {
      "inputs": [],
      "name": "ops",
      "outputs": [
        {
          "internalType": "contract IOps",
          "name": "",
          "type": "address"
        }
      ],
      "stateMutability": "view",
      "type": "function",
      "constant": true
    },
    {
      "inputs": [],
      "name": "price",
      "outputs": [
        {
          "internalType": "uint256",
          "name": "",
          "type": "uint256"
        }
      ],
      "stateMutability": "view",
      "type": "function",
      "constant": true
    },
    {
      "inputs": [
        {
          "internalType": "bytes32",
          "name": "_queryId",
          "type": "bytes32"
        },
        {
          "internalType": "uint256",
          "name": "_timestamp",
          "type": "uint256"
        }
      ],
      "name": "retrieveData",
      "outputs": [
        {
          "internalType": "bytes",
          "name": "",
          "type": "bytes"
        }
      ],
      "stateMutability": "view",
      "type": "function",
      "constant": true
    },
    {
      "inputs": [
        {
          "internalType": "address",
          "name": "_addy",
          "type": "address"
        }
      ],
      "name": "setIdMappingContract",
      "outputs": [],
      "stateMutability": "nonpayable",
      "type": "function"
    },
    {
      "inputs": [],
      "name": "tellor",
      "outputs": [
        {
          "internalType": "contract ITellor",
          "name": "",
          "type": "address"
        }
      ],
      "stateMutability": "view",
      "type": "function",
      "constant": true
    },
    {
      "inputs": [
        {
          "internalType": "bytes32",
          "name": "_id",
          "type": "bytes32"
        }
      ],
      "name": "valueFor",
      "outputs": [
        {
          "internalType": "int256",
          "name": "_value",
          "type": "int256"
        },
        {
          "internalType": "uint256",
          "name": "_timestamp",
          "type": "uint256"
        },
        {
          "internalType": "uint256",
          "name": "_statusCode",
          "type": "uint256"
        }
      ],
      "stateMutability": "view",
      "type": "function",
      "constant": true
    },
    {
      "stateMutability": "payable",
      "type": "receive",
      "payable": true
    },
    {
      "inputs": [
        {
          "internalType": "uint256",
          "name": "_price",
          "type": "uint256"
        }
      ],
      "name": "setPrice",
      "outputs": [],
      "stateMutability": "nonpayable",
      "type": "function"
    },
    {
      "inputs": [
        {
          "internalType": "address",
          "name": "_lendingVault",
          "type": "address"
        }
      ],
      "name": "setLendingVault",
      "outputs": [],
      "stateMutability": "nonpayable",
      "type": "function"
    },
    {
      "inputs": [
        {
          "internalType": "uint256",
          "name": "orderNonce",
          "type": "uint256"
        }
      ],
      "name": "executeOrder",
      "outputs": [],
      "stateMutability": "nonpayable",
      "type": "function"
    },
    {
      "inputs": [
        {
          "internalType": "uint256",
          "name": "orderNonce",
          "type": "uint256"
        }
      ],
      "name": "checker",
      "outputs": [
        {
          "internalType": "bool",
          "name": "canExec",
          "type": "bool"
        },
        {
          "internalType": "bytes",
          "name": "execPayload",
          "type": "bytes"
        }
      ],
      "stateMutability": "view",
      "type": "function",
      "constant": true
    },
    {
      "inputs": [],
      "name": "withdraw",
      "outputs": [],
      "stateMutability": "nonpayable",
      "type": "function"
    },
    {
      "inputs": [],
      "name": "getEthSpotPrice",
      "outputs": [
        {
          "internalType": "uint256",
          "name": "",
          "type": "uint256"
        }
      ],
      "stateMutability": "view",
      "type": "function",
      "constant": true
    }
  ],
  "bytecode": "0x6101206040523480156200001257600080fd5b5060405162003dac38038062003dac833981810160405281019062000038919062000389565b8084848173ffffffffffffffffffffffffffffffffffffffff1660808173ffffffffffffffffffffffffffffffffffffffff16815250508173ffffffffffffffffffffffffffffffffffffffff1663573ea5756040518163ffffffff1660e01b8152600401602060405180830381865afa158015620000bb573d6000803e3d6000fd5b505050506040513d601f19601f82011682018060405250810190620000e19190620003fb565b73ffffffffffffffffffffffffffffffffffffffff1660c08173ffffffffffffffffffffffffffffffffffffffff168152505073c815db16d4be6ddf2685c201937905abf338f5d773ffffffffffffffffffffffffffffffffffffffff1663ded89a7c826040518263ffffffff1660e01b81526004016200016391906200043e565b6040805180830381865afa15801562000180573d6000803e3d6000fd5b505050506040513d601f19601f82011682018060405250810190620001a6919062000498565b508073ffffffffffffffffffffffffffffffffffffffff1660a09073ffffffffffffffffffffffffffffffffffffffff16815250505050806000806101000a81548173ffffffffffffffffffffffffffffffffffffffff021916908373ffffffffffffffffffffffffffffffffffffffff16021790555050606460028190555033600360006101000a81548173ffffffffffffffffffffffffffffffffffffffff021916908373ffffffffffffffffffffffffffffffffffffffff1602179055508273ffffffffffffffffffffffffffffffffffffffff1660e08173ffffffffffffffffffffffffffffffffffffffff16815250508173ffffffffffffffffffffffffffffffffffffffff166101008173ffffffffffffffffffffffffffffffffffffffff168152505050505050620004df565b600080fd5b600073ffffffffffffffffffffffffffffffffffffffff82169050919050565b60006200030c82620002df565b9050919050565b6200031e81620002ff565b81146200032a57600080fd5b50565b6000815190506200033e8162000313565b92915050565b60006200035182620002df565b9050919050565b620003638162000344565b81146200036f57600080fd5b50565b600081519050620003838162000358565b92915050565b60008060008060808587031215620003a657620003a5620002da565b5b6000620003b6878288016200032d565b9450506020620003c9878288016200032d565b9350506040620003dc878288016200032d565b9250506060620003ef8782880162000372565b91505092959194509250565b600060208284031215620004145762000413620002da565b5b6000620004248482850162000372565b91505092915050565b6200043881620002ff565b82525050565b60006020820190506200045560008301846200042d565b92915050565b60008115159050919050565b62000472816200045b565b81146200047e57600080fd5b50565b600081519050620004928162000467565b92915050565b60008060408385031215620004b257620004b1620002da565b5b6000620004c2858286016200032d565b9250506020620004d58582860162000481565b9150509250929050565b60805160a05160c05160e051610100516138426200056a60003960008181610f23015261122b015260008181610b9c01528181610d6801528181610e6901528181610fc30152818161107c0152818161114201526112c8015260008181611ed10152611fa50152600081816106b60152610c9a01526000818161170b0152611dee01526138426000f3fe6080604052600436106101445760003560e01c806394e05b2c116100b6578063d602e3c61161006f578063d602e3c6146104a3578063e07c5486146104ce578063e70abe921461050b578063f66f49c314610536578063f78eea8314610574578063fcd4a546146105b35761014b565b806394e05b2c1461035957806394f6113414610397578063a035b1fe146103c0578063a792765f146103eb578063c5958af914610429578063ce5e11bf146104665761014b565b80633ccfd60b116101085780633ccfd60b14610238578063408a03d81461024f57806344e87f911461027857806364ee3c6d146102b557806377b03e0d146102f357806391b7f5ed146103305761014b565b8063193b505b146101505780631959ad5b1461017957806328f150eb146101a457806329449085146101cf5780632af8aae01461020d5761014b565b3661014b57005b600080fd5b34801561015c57600080fd5b50610177600480360381019061017291906123c3565b6105f1565b005b34801561018557600080fd5b5061018e610690565b60405161019b919061244f565b60405180910390f35b3480156101b057600080fd5b506101b96106b4565b6040516101c69190612479565b60405180910390f35b3480156101db57600080fd5b506101f660048036038101906101f19190612500565b6106d8565b60405161020492919061256a565b60405180910390f35b34801561021957600080fd5b50610222610781565b60405161022f91906125b4565b60405180910390f35b34801561024457600080fd5b5061024d6107a7565b005b34801561025b57600080fd5b50610276600480360381019061027191906123c3565b610880565b005b34801561028457600080fd5b5061029f600480360381019061029a9190612500565b610954565b6040516102ac91906125cf565b60405180910390f35b3480156102c157600080fd5b506102dc60048036038101906102d79190612500565b6109fb565b6040516102ea92919061267a565b60405180910390f35b3480156102ff57600080fd5b5061031a600480360381019061031591906126aa565b610a55565b60405161032791906126d7565b60405180910390f35b34801561033c57600080fd5b50610357600480360381019061035291906126f2565b610af9565b005b34801561036557600080fd5b50610380600480360381019061037b91906126f2565b610b93565b60405161038e92919061271f565b60405180910390f35b3480156103a357600080fd5b506103be60048036038101906103b991906126f2565b610c98565b005b3480156103cc57600080fd5b506103d5611399565b6040516103e291906126d7565b60405180910390f35b3480156103f757600080fd5b50610412600480360381019061040d9190612500565b61139f565b60405161042092919061267a565b60405180910390f35b34801561043557600080fd5b50610450600480360381019061044b9190612500565b611457565b60405161045d919061274f565b60405180910390f35b34801561047257600080fd5b5061048d60048036038101906104889190612500565b611502565b60405161049a91906126d7565b60405180910390f35b3480156104af57600080fd5b506104b86115a9565b6040516104c591906126d7565b60405180910390f35b3480156104da57600080fd5b506104f560048036038101906104f09190612500565b611662565b6040516105029190612479565b60405180910390f35b34801561051757600080fd5b50610520611709565b60405161052d9190612792565b60405180910390f35b34801561054257600080fd5b5061055d60048036038101906105589190612500565b61172d565b60405161056b92919061256a565b60405180910390f35b34801561058057600080fd5b5061059b600480360381019061059691906126aa565b611911565b6040516105aa939291906127c6565b60405180910390f35b3480156105bf57600080fd5b506105da60048036038101906105d591906127fd565b611a15565b6040516105e8929190612a2e565b60405180910390f35b600073ffffffffffffffffffffffffffffffffffffffff16600160009054906101000a900473ffffffffffffffffffffffffffffffffffffffff1673ffffffffffffffffffffffffffffffffffffffff161461064c57600080fd5b80600160006101000a81548173ffffffffffffffffffffffffffffffffffffffff021916908373ffffffffffffffffffffffffffffffffffffffff16021790555050565b60008054906101000a900473ffffffffffffffffffffffffffffffffffffffff1681565b7f000000000000000000000000000000000000000000000000000000000000000081565b60008060008054906101000a900473ffffffffffffffffffffffffffffffffffffffff1673ffffffffffffffffffffffffffffffffffffffff16632944908585856040518363ffffffff1660e01b8152600401610736929190612a74565b6040805180830381865afa158015610752573d6000803e3d6000fd5b505050506040513d601f19601f820116820180604052508101906107769190612ade565b915091509250929050565b600160009054906101000a900473ffffffffffffffffffffffffffffffffffffffff1681565b600360009054906101000a900473ffffffffffffffffffffffffffffffffffffffff1673ffffffffffffffffffffffffffffffffffffffff163373ffffffffffffffffffffffffffffffffffffffff1614610837576040517f08c379a000000000000000000000000000000000000000000000000000000000815260040161082e90612b7b565b60405180910390fd5b3373ffffffffffffffffffffffffffffffffffffffff166108fc479081150290604051600060405180830381858888f1935050505015801561087d573d6000803e3d6000fd5b50565b600360009054906101000a900473ffffffffffffffffffffffffffffffffffffffff1673ffffffffffffffffffffffffffffffffffffffff163373ffffffffffffffffffffffffffffffffffffffff1614610910576040517f08c379a000000000000000000000000000000000000000000000000000000000815260040161090790612b7b565b60405180910390fd5b80600460006101000a81548173ffffffffffffffffffffffffffffffffffffffff021916908373ffffffffffffffffffffffffffffffffffffffff16021790555050565b60008060009054906101000a900473ffffffffffffffffffffffffffffffffffffffff1673ffffffffffffffffffffffffffffffffffffffff166344e87f9184846040518363ffffffff1660e01b81526004016109b2929190612a74565b602060405180830381865afa1580156109cf573d6000803e3d6000fd5b505050506040513d601f19601f820116820180604052508101906109f39190612b9b565b905092915050565b60606000806000610a0c868661172d565b9150915081610a335760006040518060200160405280600081525090935093505050610a4e565b610a3d8682611502565b9250610a498684611457565b935050505b9250929050565b60008060009054906101000a900473ffffffffffffffffffffffffffffffffffffffff1673ffffffffffffffffffffffffffffffffffffffff166377b03e0d836040518263ffffffff1660e01b8152600401610ab19190612bc8565b602060405180830381865afa158015610ace573d6000803e3d6000fd5b505050506040513d601f19601f82011682018060405250810190610af29190612be3565b9050919050565b600360009054906101000a900473ffffffffffffffffffffffffffffffffffffffff1673ffffffffffffffffffffffffffffffffffffffff163373ffffffffffffffffffffffffffffffffffffffff1614610b89576040517f08c379a0000000000000000000000000000000000000000000000000000000008152600401610b8090612b7b565b60405180910390fd5b8060028190555050565b600060606002547f000000000000000000000000000000000000000000000000000000000000000073ffffffffffffffffffffffffffffffffffffffff1663d09ef241856040518263ffffffff1660e01b8152600401610bf391906126d7565b60e060405180830381865afa158015610c10573d6000803e3d6000fd5b505050506040513d601f19601f82011682018060405250810190610c349190612d6e565b6020015114915082604051602401610c4c91906126d7565b6040516020818303038152906040526394f6113460e01b6020820180517bffffffffffffffffffffffffffffffffffffffffffffffffffffffff83818316178352505050509050915091565b7f000000000000000000000000000000000000000000000000000000000000000073ffffffffffffffffffffffffffffffffffffffff163373ffffffffffffffffffffffffffffffffffffffff1614610d26576040517f08c379a0000000000000000000000000000000000000000000000000000000008152600401610d1d90612de7565b60405180910390fd5b6000600460009054906101000a900473ffffffffffffffffffffffffffffffffffffffff1673ffffffffffffffffffffffffffffffffffffffff1663f3fef3a37f000000000000000000000000000000000000000000000000000000000000000073ffffffffffffffffffffffffffffffffffffffff1663d09ef241856040518263ffffffff1660e01b8152600401610dbf91906126d7565b60e060405180830381865afa158015610ddc573d6000803e3d6000fd5b505050506040513d601f19601f82011682018060405250810190610e009190612d6e565b60600151846040518363ffffffff1660e01b8152600401610e22929190612e07565b6020604051808303816000875af1158015610e41573d6000803e3d6000fd5b505050506040513d601f19601f82011682018060405250810190610e659190612be3565b90507f000000000000000000000000000000000000000000000000000000000000000073ffffffffffffffffffffffffffffffffffffffff1663d09ef24160006040518263ffffffff1660e01b8152600401610ec19190612e6b565b60e060405180830381865afa158015610ede573d6000803e3d6000fd5b505050506040513d601f19601f82011682018060405250810190610f029190612d6e565b6060015173ffffffffffffffffffffffffffffffffffffffff1663095ea7b37f0000000000000000000000000000000000000000000000000000000000000000836040518363ffffffff1660e01b8152600401610f60929190612e07565b6020604051808303816000875af1158015610f7f573d6000803e3d6000fd5b505050506040513d601f19601f82011682018060405250810190610fa39190612b9b565b50600080610faf611de9565b9150915060006040518061010001604052807f000000000000000000000000000000000000000000000000000000000000000073ffffffffffffffffffffffffffffffffffffffff1663d09ef241886040518263ffffffff1660e01b815260040161101a91906126d7565b60e060405180830381865afa158015611037573d6000803e3d6000fd5b505050506040513d601f19601f8201168201806040525081019061105b9190612d6e565b6060015173ffffffffffffffffffffffffffffffffffffffff1681526020017f000000000000000000000000000000000000000000000000000000000000000073ffffffffffffffffffffffffffffffffffffffff1663d09ef241886040518263ffffffff1660e01b81526004016110d391906126d7565b60e060405180830381865afa1580156110f0573d6000803e3d6000fd5b505050506040513d601f19601f820116820180604052508101906111149190612d6e565b6080015173ffffffffffffffffffffffffffffffffffffffff168152602001610bb862ffffff1681526020017f000000000000000000000000000000000000000000000000000000000000000073ffffffffffffffffffffffffffffffffffffffff1663d09ef241886040518263ffffffff1660e01b815260040161119991906126d7565b60e060405180830381865afa1580156111b6573d6000803e3d6000fd5b505050506040513d601f19601f820116820180604052508101906111da9190612d6e565b6000015173ffffffffffffffffffffffffffffffffffffffff16815260200142815260200185815260200160008152602001600073ffffffffffffffffffffffffffffffffffffffff1681525090507f000000000000000000000000000000000000000000000000000000000000000073ffffffffffffffffffffffffffffffffffffffff1663414bf389826040518263ffffffff1660e01b81526004016112829190612f64565b6020604051808303816000875af11580156112a1573d6000803e3d6000fd5b505050506040513d601f19601f820116820180604052508101906112c59190612be3565b507f000000000000000000000000000000000000000000000000000000000000000073ffffffffffffffffffffffffffffffffffffffff16632993c690866040518263ffffffff1660e01b815260040161131f91906126d7565b600060405180830381600087803b15801561133957600080fd5b505af115801561134d573d6000803e3d6000fd5b505050507f9e86ce0485ddb047dd0f8fde14218156b79c2832f3c1ae9d2a05aa746cb6e3be856040516113809190612fcc565b60405180910390a16113928383611e86565b5050505050565b60025481565b606060008060009054906101000a900473ffffffffffffffffffffffffffffffffffffffff1673ffffffffffffffffffffffffffffffffffffffff1663a792765f85856040518363ffffffff1660e01b81526004016113ff929190612a74565b600060405180830381865afa15801561141c573d6000803e3d6000fd5b505050506040513d6000823e3d601f19601f8201168201806040525081019061144591906130a5565b90915080925081935050509250929050565b606060008054906101000a900473ffffffffffffffffffffffffffffffffffffffff1673ffffffffffffffffffffffffffffffffffffffff1663c5958af984846040518363ffffffff1660e01b81526004016114b4929190612a74565b600060405180830381865afa1580156114d1573d6000803e3d6000fd5b505050506040513d6000823e3d601f19601f820116820180604052508101906114fa9190613114565b905092915050565b60008060009054906101000a900473ffffffffffffffffffffffffffffffffffffffff1673ffffffffffffffffffffffffffffffffffffffff1663ce5e11bf84846040518363ffffffff1660e01b8152600401611560929190612a74565b602060405180830381865afa15801561157d573d6000803e3d6000fd5b505050506040513d601f19601f820116820180604052508101906115a19190612be3565b905092915050565b6000806040516020016115bb906131f5565b6040516020818303038152906040526040516020016115da9190613274565b6040516020818303038152906040529050600081805190602001209050600080611611836104b04261160c91906132d8565b61139f565b915091506000810361162a57600094505050505061165f565b62015180814261163a91906132d8565b1061164457600080fd5b818060200190518101906116589190612be3565b9450505050505b90565b60008060009054906101000a900473ffffffffffffffffffffffffffffffffffffffff1673ffffffffffffffffffffffffffffffffffffffff1663e07c548684846040518363ffffffff1660e01b81526004016116c0929190612a74565b602060405180830381865afa1580156116dd573d6000803e3d6000fd5b505050506040513d601f19601f82011682018060405250810190611701919061330c565b905092915050565b7f000000000000000000000000000000000000000000000000000000000000000081565b600080600061173b85610a55565b90506000810361175257600080925092505061190a565b808061175d90613339565b9150506000600190506000806000849050600061177a8a83611502565b9050888111611795576000809750975050505050505061190a565b61179f8a84611502565b9050888111156117ae57600094505b5b841561187657600283836117c39190613362565b6117cd91906133c5565b93506117d98a85611502565b9050888111156118235760006117fb8b6001876117f691906132d8565b611502565b905089811161180d576000955061181d565b60018561181a91906132d8565b92505b50611871565b600061183b8b6001876118369190613362565b611502565b90508981111561185f57600095508480611854906133f6565b95505080915061186f565b60018561186c9190613362565b93505b505b6117af565b6118808a82610954565b611896576001849750975050505050505061190a565b5b6118a18a82610954565b80156118ac57508584105b156118d05783806118bc906133f6565b9450506118c98a85611502565b9050611897565b85841480156118e557506118e48a82610954565b5b156118fc576000809750975050505050505061190a565b600184975097505050505050505b9250929050565b600080600080600160009054906101000a900473ffffffffffffffffffffffffffffffffffffffff1673ffffffffffffffffffffffffffffffffffffffff166387a475fd866040518263ffffffff1660e01b81526004016119729190612bc8565b602060405180830381865afa15801561198f573d6000803e3d6000fd5b505050506040513d601f19601f820116820180604052508101906119b3919061343e565b905060606119cd826001426119c89190613362565b61139f565b8095508192505050600084036119f0576000806101949450945094505050611a0e565b60006119fb82611fcf565b9050809550858560c89550955095505050505b9193909250565b606080600080611a30888789611a2b91906132d8565b61172d565b9150915081611add57600067ffffffffffffffff811115611a5457611a53612c15565b5b604051908082528060200260200182016040528015611a8757816020015b6060815260200190600190039081611a725790505b50600067ffffffffffffffff811115611aa357611aa2612c15565b5b604051908082528060200260200182016040528015611ad15781602001602082028036833780820191505090505b50935093505050611de0565b6000611ae989896106d8565b809250819450505082611b9b57600067ffffffffffffffff811115611b1157611b10612c15565b5b604051908082528060200260200182016040528015611b4457816020015b6060815260200190600190039081611b2f5790505b50600067ffffffffffffffff811115611b6057611b5f612c15565b5b604051908082528060200260200182016040528015611b8e5781602001602082028036833780820191505090505b5094509450505050611de0565b60008060008867ffffffffffffffff811115611bba57611bb9612c15565b5b604051908082528060200260200182016040528015611be85781602001602082028036833780820191505090505b5090505b8883108015611c1157508482600186611c059190613362565b611c0f91906132d8565b115b15611c80576000611c2d8d8487611c2891906132d8565b611502565b9050611c398d82610954565b611c6c5780828581518110611c5157611c5061346b565b5b6020026020010181815250508380611c68906133f6565b9450505b8280611c77906133f6565b93505050611bec565b60008367ffffffffffffffff811115611c9c57611c9b612c15565b5b604051908082528060200260200182016040528015611ccf57816020015b6060815260200190600190039081611cba5790505b50905060008467ffffffffffffffff811115611cee57611ced612c15565b5b604051908082528060200260200182016040528015611d1c5781602001602082028036833780820191505090505b50905060005b85811015611dd0578381600188611d3991906132d8565b611d4391906132d8565b81518110611d5457611d5361346b565b5b6020026020010151828281518110611d6f57611d6e61346b565b5b602002602001018181525050611d9f8f838381518110611d9257611d9161346b565b5b6020026020010151611457565b838281518110611db257611db161346b565b5b60200260200101819052508080611dc8906133f6565b915050611d22565b5081819950995050505050505050505b94509492505050565b6000807f000000000000000000000000000000000000000000000000000000000000000073ffffffffffffffffffffffffffffffffffffffff1663b810c6366040518163ffffffff1660e01b81526004016040805180830381865afa158015611e56573d6000803e3d6000fd5b505050506040513d601f19601f82011682018060405250810190611e7a919061349a565b80925081935050509091565b73eeeeeeeeeeeeeeeeeeeeeeeeeeeeeeeeeeeeeeee73ffffffffffffffffffffffffffffffffffffffff168173ffffffffffffffffffffffffffffffffffffffff1603611f9f5760007f000000000000000000000000000000000000000000000000000000000000000073ffffffffffffffffffffffffffffffffffffffff1683604051611f139061350b565b60006040518083038185875af1925050503d8060008114611f50576040519150601f19603f3d011682016040523d82523d6000602084013e611f55565b606091505b5050905080611f99576040517f08c379a0000000000000000000000000000000000000000000000000000000008152600401611f909061356c565b60405180910390fd5b50611fcb565b611fca817f000000000000000000000000000000000000000000000000000000000000000084612037565b5b5050565b600080600090505b825181101561203157828181518110611ff357611ff261346b565b5b602001015160f81c60f81b60f81c60ff1661010083612012919061358c565b61201c9190613362565b91508080612029906133f6565b915050611fd7565b50919050565b6120b88363a9059cbb60e01b8484604051602401612056929190612e07565b604051602081830303815290604052907bffffffffffffffffffffffffffffffffffffffffffffffffffffffff19166020820180517bffffffffffffffffffffffffffffffffffffffffffffffffffffffff83818316178352505050506120bd565b505050565b600061211f826040518060400160405280602081526020017f5361666545524332303a206c6f772d6c6576656c2063616c6c206661696c65648152508573ffffffffffffffffffffffffffffffffffffffff166121849092919063ffffffff16565b905060008151111561217f578080602001905181019061213f9190612b9b565b61217e576040517f08c379a000000000000000000000000000000000000000000000000000000000815260040161217590613640565b60405180910390fd5b5b505050565b6060612193848460008561219c565b90509392505050565b6060824710156121e1576040517f08c379a00000000000000000000000000000000000000000000000000000000081526004016121d8906136d2565b60405180910390fd5b6000808673ffffffffffffffffffffffffffffffffffffffff16858760405161220a9190613723565b60006040518083038185875af1925050503d8060008114612247576040519150601f19603f3d011682016040523d82523d6000602084013e61224c565b606091505b509150915061225d87838387612269565b92505050949350505050565b606083156122cb5760008351036122c357612283856122de565b6122c2576040517f08c379a00000000000000000000000000000000000000000000000000000000081526004016122b990613786565b60405180910390fd5b5b8290506122d6565b6122d58383612301565b5b949350505050565b6000808273ffffffffffffffffffffffffffffffffffffffff163b119050919050565b6000825111156123145781518083602001fd5b806040517f08c379a000000000000000000000000000000000000000000000000000000000815260040161234891906137ea565b60405180910390fd5b6000604051905090565b600080fd5b600080fd5b600073ffffffffffffffffffffffffffffffffffffffff82169050919050565b600061239082612365565b9050919050565b6123a081612385565b81146123ab57600080fd5b50565b6000813590506123bd81612397565b92915050565b6000602082840312156123d9576123d861235b565b5b60006123e7848285016123ae565b91505092915050565b6000819050919050565b600061241561241061240b84612365565b6123f0565b612365565b9050919050565b6000612427826123fa565b9050919050565b60006124398261241c565b9050919050565b6124498161242e565b82525050565b60006020820190506124646000830184612440565b92915050565b61247381612385565b82525050565b600060208201905061248e600083018461246a565b92915050565b6000819050919050565b6124a781612494565b81146124b257600080fd5b50565b6000813590506124c48161249e565b92915050565b6000819050919050565b6124dd816124ca565b81146124e857600080fd5b50565b6000813590506124fa816124d4565b92915050565b600080604083850312156125175761251661235b565b5b6000612525858286016124b5565b9250506020612536858286016124eb565b9150509250929050565b60008115159050919050565b61255581612540565b82525050565b612564816124ca565b82525050565b600060408201905061257f600083018561254c565b61258c602083018461255b565b9392505050565b600061259e8261241c565b9050919050565b6125ae81612593565b82525050565b60006020820190506125c960008301846125a5565b92915050565b60006020820190506125e4600083018461254c565b92915050565b600081519050919050565b600082825260208201905092915050565b60005b83811015612624578082015181840152602081019050612609565b60008484015250505050565b6000601f19601f8301169050919050565b600061264c826125ea565b61265681856125f5565b9350612666818560208601612606565b61266f81612630565b840191505092915050565b600060408201905081810360008301526126948185612641565b90506126a3602083018461255b565b9392505050565b6000602082840312156126c0576126bf61235b565b5b60006126ce848285016124b5565b91505092915050565b60006020820190506126ec600083018461255b565b92915050565b6000602082840312156127085761270761235b565b5b6000612716848285016124eb565b91505092915050565b6000604082019050612734600083018561254c565b81810360208301526127468184612641565b90509392505050565b600060208201905081810360008301526127698184612641565b905092915050565b600061277c8261241c565b9050919050565b61278c81612771565b82525050565b60006020820190506127a76000830184612783565b92915050565b6000819050919050565b6127c0816127ad565b82525050565b60006060820190506127db60008301866127b7565b6127e8602083018561255b565b6127f5604083018461255b565b949350505050565b600080600080608085870312156128175761281661235b565b5b6000612825878288016124b5565b9450506020612836878288016124eb565b9350506040612847878288016124eb565b9250506060612858878288016124eb565b91505092959194509250565b600081519050919050565b600082825260208201905092915050565b6000819050602082019050919050565b600082825260208201905092915050565b60006128ac826125ea565b6128b68185612890565b93506128c6818560208601612606565b6128cf81612630565b840191505092915050565b60006128e683836128a1565b905092915050565b6000602082019050919050565b600061290682612864565b612910818561286f565b93508360208202850161292285612880565b8060005b8581101561295e578484038952815161293f85826128da565b945061294a836128ee565b925060208a01995050600181019050612926565b50829750879550505050505092915050565b600081519050919050565b600082825260208201905092915050565b6000819050602082019050919050565b6129a5816124ca565b82525050565b60006129b7838361299c565b60208301905092915050565b6000602082019050919050565b60006129db82612970565b6129e5818561297b565b93506129f08361298c565b8060005b83811015612a21578151612a0888826129ab565b9750612a13836129c3565b9250506001810190506129f4565b5085935050505092915050565b60006040820190508181036000830152612a4881856128fb565b90508181036020830152612a5c81846129d0565b90509392505050565b612a6e81612494565b82525050565b6000604082019050612a896000830185612a65565b612a96602083018461255b565b9392505050565b612aa681612540565b8114612ab157600080fd5b50565b600081519050612ac381612a9d565b92915050565b600081519050612ad8816124d4565b92915050565b60008060408385031215612af557612af461235b565b5b6000612b0385828601612ab4565b9250506020612b1485828601612ac9565b9150509250929050565b600082825260208201905092915050565b7f4e6f7420616c6c6f77656420616464726573732e000000000000000000000000600082015250565b6000612b65601483612b1e565b9150612b7082612b2f565b602082019050919050565b60006020820190508181036000830152612b9481612b58565b9050919050565b600060208284031215612bb157612bb061235b565b5b6000612bbf84828501612ab4565b91505092915050565b6000602082019050612bdd6000830184612a65565b92915050565b600060208284031215612bf957612bf861235b565b5b6000612c0784828501612ac9565b91505092915050565b600080fd5b7f4e487b7100000000000000000000000000000000000000000000000000000000600052604160045260246000fd5b612c4d82612630565b810181811067ffffffffffffffff82111715612c6c57612c6b612c15565b5b80604052505050565b6000612c7f612351565b9050612c8b8282612c44565b919050565b600081519050612c9f81612397565b92915050565b600081519050612cb48161249e565b92915050565b600060e08284031215612cd057612ccf612c10565b5b612cda60e0612c75565b90506000612cea84828501612c90565b6000830152506020612cfe84828501612ac9565b6020830152506040612d1284828501612ac9565b6040830152506060612d2684828501612c90565b6060830152506080612d3a84828501612c90565b60808301525060a0612d4e84828501612ca5565b60a08301525060c0612d6284828501612ab4565b60c08301525092915050565b600060e08284031215612d8457612d8361235b565b5b6000612d9284828501612cba565b91505092915050565b7f4f6e6c7920646564696361746564206d73672e73656e64657200000000000000600082015250565b6000612dd1601983612b1e565b9150612ddc82612d9b565b602082019050919050565b60006020820190508181036000830152612e0081612dc4565b9050919050565b6000604082019050612e1c600083018561246a565b612e29602083018461255b565b9392505050565b6000819050919050565b6000612e55612e50612e4b84612e30565b6123f0565b6124ca565b9050919050565b612e6581612e3a565b82525050565b6000602082019050612e806000830184612e5c565b92915050565b612e8f81612385565b82525050565b600062ffffff82169050919050565b612ead81612e95565b82525050565b612ebc81612365565b82525050565b61010082016000820151612ed96000850182612e86565b506020820151612eec6020850182612e86565b506040820151612eff6040850182612ea4565b506060820151612f126060850182612e86565b506080820151612f25608085018261299c565b5060a0820151612f3860a085018261299c565b5060c0820151612f4b60c085018261299c565b5060e0820151612f5e60e0850182612eb3565b50505050565b600061010082019050612f7a6000830184612ec2565b92915050565b7f6f726465725f6578656375746564000000000000000000000000000000000000600082015250565b6000612fb6600e83612b1e565b9150612fc182612f80565b602082019050919050565b60006040820190508181036000830152612fe581612fa9565b9050612ff4602083018461255b565b92915050565b600080fd5b600080fd5b600067ffffffffffffffff82111561301f5761301e612c15565b5b61302882612630565b9050602081019050919050565b600061304861304384613004565b612c75565b90508281526020810184848401111561306457613063612fff565b5b61306f848285612606565b509392505050565b600082601f83011261308c5761308b612ffa565b5b815161309c848260208601613035565b91505092915050565b6000806000606084860312156130be576130bd61235b565b5b60006130cc86828701612ab4565b935050602084015167ffffffffffffffff8111156130ed576130ec612360565b5b6130f986828701613077565b925050604061310a86828701612ac9565b9150509250925092565b60006020828403121561312a5761312961235b565b5b600082015167ffffffffffffffff81111561314857613147612360565b5b61315484828501613077565b91505092915050565b7f6574680000000000000000000000000000000000000000000000000000000000600082015250565b6000613193600383612b1e565b915061319e8261315d565b602082019050919050565b7f7573640000000000000000000000000000000000000000000000000000000000600082015250565b60006131df600383612b1e565b91506131ea826131a9565b602082019050919050565b6000604082019050818103600083015261320e81613186565b90508181036020830152613221816131d2565b9050919050565b7f53706f7450726963650000000000000000000000000000000000000000000000600082015250565b600061325e600983612b1e565b915061326982613228565b602082019050919050565b6000604082019050818103600083015261328d81613251565b905081810360208301526132a18184612641565b905092915050565b7f4e487b7100000000000000000000000000000000000000000000000000000000600052601160045260246000fd5b60006132e3826124ca565b91506132ee836124ca565b9250828203905081811115613306576133056132a9565b5b92915050565b6000602082840312156133225761332161235b565b5b600061333084828501612c90565b91505092915050565b6000613344826124ca565b915060008203613357576133566132a9565b5b600182039050919050565b600061336d826124ca565b9150613378836124ca565b92508282019050808211156133905761338f6132a9565b5b92915050565b7f4e487b7100000000000000000000000000000000000000000000000000000000600052601260045260246000fd5b60006133d0826124ca565b91506133db836124ca565b9250826133eb576133ea613396565b5b828204905092915050565b6000613401826124ca565b91507fffffffffffffffffffffffffffffffffffffffffffffffffffffffffffffffff8203613433576134326132a9565b5b600182019050919050565b6000602082840312156134545761345361235b565b5b600061346284828501612ca5565b91505092915050565b7f4e487b7100000000000000000000000000000000000000000000000000000000600052603260045260246000fd5b600080604083850312156134b1576134b061235b565b5b60006134bf85828601612ac9565b92505060206134d085828601612c90565b9150509250929050565b600081905092915050565b50565b60006134f56000836134da565b9150613500826134e5565b600082019050919050565b6000613516826134e8565b9150819050919050565b7f5f7472616e736665723a20455448207472616e73666572206661696c65640000600082015250565b6000613556601e83612b1e565b915061356182613520565b602082019050919050565b6000602082019050818103600083015261358581613549565b9050919050565b6000613597826124ca565b91506135a2836124ca565b92508282026135b0816124ca565b915082820484148315176135c7576135c66132a9565b5b5092915050565b7f5361666545524332303a204552433230206f7065726174696f6e20646964206e60008201527f6f74207375636365656400000000000000000000000000000000000000000000602082015250565b600061362a602a83612b1e565b9150613635826135ce565b604082019050919050565b600060208201905081810360008301526136598161361d565b9050919050565b7f416464726573733a20696e73756666696369656e742062616c616e636520666f60008201527f722063616c6c0000000000000000000000000000000000000000000000000000602082015250565b60006136bc602683612b1e565b91506136c782613660565b604082019050919050565b600060208201905081810360008301526136eb816136af565b9050919050565b60006136fd826125ea565b61370781856134da565b9350613717818560208601612606565b80840191505092915050565b600061372f82846136f2565b915081905092915050565b7f416464726573733a2063616c6c20746f206e6f6e2d636f6e7472616374000000600082015250565b6000613770601d83612b1e565b915061377b8261373a565b602082019050919050565b6000602082019050818103600083015261379f81613763565b9050919050565b600081519050919050565b60006137bc826137a6565b6137c68185612b1e565b93506137d6818560208601612606565b6137df81612630565b840191505092915050565b6000602082019050818103600083015261380481846137b1565b90509291505056fea264697066735822122061847da606ba34dd5389c0ad2868a574fae27a1fee2a50b2f94bcdf2f8f4993664736f6c63430008130033",
  "immutableReferences": {
    "1317": [
      {
        "length": 32,
        "start": 2972
      },
      {
        "length": 32,
        "start": 3432
      },
      {
        "length": 32,
        "start": 3689
      },
      {
        "length": 32,
        "start": 4035
      },
      {
        "length": 32,
        "start": 4220
      },
      {
        "length": 32,
        "start": 4418
      },
      {
        "length": 32,
        "start": 4808
      }
    ],
    "1320": [
      {
        "length": 32,
        "start": 3875
      },
      {
        "length": 32,
        "start": 4651
      }
    ],
    "1621": [
      {
        "length": 32,
        "start": 5899
      },
      {
        "length": 32,
        "start": 7662
      }
    ],
    "1623": [
      {
        "length": 32,
        "start": 1718
      },
      {
        "length": 32,
        "start": 3226
      }
    ],
    "1625": [
      {
        "length": 32,
        "start": 7889
      },
      {
        "length": 32,
        "start": 8101
      }
    ]
  },
  "source": "// SPDX-License-Identifier: UNLICENSED\npragma solidity ^0.8.19;\n\nimport \"./gelato/OpsReady.sol\";\nimport \"./OrderBook.sol\";\nimport './LendingVault.sol';\nimport \"./uniswap/ISwapRouter.sol\";\nimport \"./oracles/tellor/UsingTellor.sol\";\n\ncontract OrderExecutor is OpsReady, UsingTellor {\n\n    uint public price; // temporary, testing purposes only\n    address private deployer;\n\n    OrderBook private immutable orderBook;\n    ISwapRouter private immutable swapRouter;\n    LendingVault private lendingVault;\n\n    event OrderDone(string, uint256);\n\n    modifier onlyDeployer {\n        require(msg.sender == deployer, \"Not allowed address.\");\n        _; // Continue the execution of the function called\n    }\n\n    constructor(address _ops, address _taskCreator, address _swapRouter, address payable _tellorAddress) OpsReady(_ops, _taskCreator) UsingTellor(_tellorAddress) {\n        price = 100; // arbitrary price for testing\n        deployer = msg.sender;\n        orderBook = OrderBook(_taskCreator);\n        swapRouter = ISwapRouter(_swapRouter);\n    }\n\n    function setPrice(uint _price) public onlyDeployer {\n        price = _price;\n    }\n\n    receive() external payable {}\n\n    function setLendingVault(address _lendingVault) public onlyDeployer {\n        lendingVault = LendingVault(_lendingVault);\n    }\n\n    function executeOrder(uint orderNonce) external onlyDedicatedMsgSender {\n        // execute order with orderNonce here\n        uint256 amountWithdrawed = lendingVault.withdraw(orderBook.getOrder(orderNonce).tokenIn, orderNonce);\n\n        // Approving the appropriate amount that uniswap is gonna take on order to make the swap\n        IERC20(orderBook.getOrder(0).tokenIn).approve(address(swapRouter), amountWithdrawed);\n\n        (uint256 fee, address feeToken) = _getFeeDetails();\n        // Here we need to verify gasfees with an oracle (like chainlink)\n\n        // Here we should put an order that is swapping the needed amount of underleying asset to wrapped native token\n        // Then unwrap it to be able to send them to gelato node at the end of the function execution\n\n        // Naively set amountOutMinimum to 0. In production, use an oracle or other data source to choose a safer value for amountOutMinimum.\n        // We also set the sqrtPriceLimitx96 to be 0 to ensure we swap our exact input amount.\n        ISwapRouter.ExactInputSingleParams memory params =\n            ISwapRouter.ExactInputSingleParams({\n                tokenIn: orderBook.getOrder(orderNonce).tokenIn,\n                tokenOut: orderBook.getOrder(orderNonce).tokenOut,\n                fee: 3000, // For this example, we will set the pool fee to 0.3%.\n                recipient: orderBook.getOrder(orderNonce).user,\n                deadline: block.timestamp,\n                amountIn: amountWithdrawed,\n                amountOutMinimum: 0, // NOT IN PRODUCTION\n                sqrtPriceLimitX96: 0 // NOT IN PRODUCTION\n            });\n\n        // The call to `exactInputSingle` executes the swap.\n        swapRouter.exactInputSingle(params);\n\n        orderBook.setExecuted(orderNonce);\n        emit OrderDone(\"order_executed\", orderNonce);\n        \n        _transfer(fee, feeToken);\n    }\n\n    function checker(uint orderNonce) external view returns (bool canExec, bytes memory execPayload) {\n        canExec = orderBook.getOrder(orderNonce).price == price; // The condition that needs to be true for the task to be executed, you can filter the condition with the orderId\n        execPayload = abi.encodeCall(OrderExecutor.executeOrder, orderNonce); // The function that you want to call on the contract\n    }\n\n    // Only used for testing\n    function withdraw() public onlyDeployer {\n        payable(msg.sender).transfer(address(this).balance);\n    }\n\n    function getEthSpotPrice() external view returns(uint256) {\n        bytes memory _queryData = abi.encode(\"SpotPrice\", abi.encode(\"eth\", \"usd\"));\n        bytes32 _queryId = keccak256(_queryData);\n\n        (bytes memory _value, uint256 _timestampRetrieved) =\n            getDataBefore(_queryId, block.timestamp - 20 minutes);\n        if (_timestampRetrieved == 0) return 0;\n        require(block.timestamp - _timestampRetrieved < 24 hours);\n        return abi.decode(_value, (uint256));\n    }\n\n}\n",
  "sourcePath": "/Users/blabla/Documents/gelato_test/contracts/OrderExecutor.sol",
  "compiler": {
    "name": "solc",
    "version": "0.8.19+commit.7dd6d404.Emscripten.clang"
  },
  "schemaVersion": "3.4.11",
  "updatedAt": "2023-03-05T11:18:00.908Z",
  "networkType": "ethereum",
  "devdoc": {
    "kind": "dev",
    "methods": {
      "getDataAfter(bytes32,uint256)": {
        "details": "Retrieves the next value for the queryId after the specified timestamp",
        "params": {
          "_queryId": "is the queryId to look up the value for",
          "_timestamp": "after which to search for next value"
        },
        "returns": {
          "_timestampRetrieved": "the value's timestamp",
          "_value": "the value retrieved"
        }
      },
      "getDataBefore(bytes32,uint256)": {
        "details": "Retrieves the latest value for the queryId before the specified timestamp",
        "params": {
          "_queryId": "is the queryId to look up the value for",
          "_timestamp": "before which to search for latest value"
        },
        "returns": {
          "_timestampRetrieved": "the value's timestamp",
          "_value": "the value retrieved"
        }
      },
      "getIndexForDataAfter(bytes32,uint256)": {
        "details": "Retrieves latest array index of data before the specified timestamp for the queryId",
        "params": {
          "_queryId": "is the queryId to look up the index for",
          "_timestamp": "is the timestamp before which to search for the latest index"
        },
        "returns": {
          "_found": "whether the index was found",
          "_index": "the latest index found before the specified timestamp"
        }
      },
      "getIndexForDataBefore(bytes32,uint256)": {
        "details": "Retrieves latest array index of data before the specified timestamp for the queryId",
        "params": {
          "_queryId": "is the queryId to look up the index for",
          "_timestamp": "is the timestamp before which to search for the latest index"
        },
        "returns": {
          "_found": "whether the index was found",
          "_index": "the latest index found before the specified timestamp"
        }
      },
      "getMultipleValuesBefore(bytes32,uint256,uint256,uint256)": {
        "details": "Retrieves multiple uint256 values before the specified timestamp",
        "params": {
          "_maxAge": "the maximum number of seconds before the _timestamp to search for values",
          "_maxCount": "the maximum number of values to return",
          "_queryId": "the unique id of the data query",
          "_timestamp": "the timestamp before which to search for values"
        },
        "returns": {
          "_timestamps": "the timestamps of the values retrieved",
          "_values": "the values retrieved, ordered from oldest to newest"
        }
      },
      "getNewValueCountbyQueryId(bytes32)": {
        "details": "Counts the number of values that have been submitted for the queryId",
        "params": {
          "_queryId": "the id to look up"
        },
        "returns": {
          "_0": "uint256 count of the number of values received for the queryId"
        }
      },
      "getReporterByTimestamp(bytes32,uint256)": {
        "details": "Returns the address of the reporter who submitted a value for a data ID at a specific time",
        "params": {
          "_queryId": "is ID of the specific data feed",
          "_timestamp": "is the timestamp to find a corresponding reporter for"
        },
        "returns": {
          "_0": "address of the reporter who reported the value for the data ID at the given timestamp"
        }
      },
      "getTimestampbyQueryIdandIndex(bytes32,uint256)": {
        "details": "Gets the timestamp for the value based on their index",
        "params": {
          "_index": "is the value index to look up",
          "_queryId": "is the id to look up"
        },
        "returns": {
          "_0": "uint256 timestamp"
        }
      },
      "isInDispute(bytes32,uint256)": {
        "details": "Determines whether a value with a given queryId and timestamp has been disputed",
        "params": {
          "_queryId": "is the value id to look up",
          "_timestamp": "is the timestamp of the value to look up"
        },
        "returns": {
          "_0": "bool true if queryId/timestamp is under dispute"
        }
      },
      "retrieveData(bytes32,uint256)": {
        "details": "Retrieve value from oracle based on queryId/timestamp",
        "params": {
          "_queryId": "being requested",
          "_timestamp": "to retrieve data/value from"
        },
        "returns": {
          "_0": "bytes value for query/timestamp submitted"
        }
      },
      "setIdMappingContract(address)": {
        "details": "allows dev to set mapping contract for valueFor (EIP2362)",
        "params": {
          "_addy": "address of mapping contract"
        }
      },
      "valueFor(bytes32)": {
        "details": "Retrieve most recent int256 value from oracle based on queryId",
        "params": {
          "_id": "being requested"
        },
        "returns": {
          "_statusCode": "200 if value found, 404 if not found",
          "_timestamp": "timestamp of most recent value",
          "_value": "most recent value submitted"
        }
      }
    },
    "version": 1
  },
  "userdoc": {
    "kind": "user",
    "methods": {},
    "version": 1
  }
}