{
  "contractName": "OrderBook",
  "abi": [
    {
      "inputs": [
        {
          "internalType": "address",
          "name": "_opsAddress",
          "type": "address"
        }
      ],
      "stateMutability": "nonpayable",
      "type": "constructor"
    },
    {
      "anonymous": false,
      "inputs": [
        {
          "indexed": false,
          "internalType": "string",
          "name": "",
          "type": "string"
        },
        {
          "indexed": false,
          "internalType": "int256",
          "name": "",
          "type": "int256"
        }
      ],
      "name": "orderCreated",
      "type": "event"
    },
    {
      "inputs": [],
      "name": "dedicatedMsgSender",
      "outputs": [
        {
          "internalType": "address",
          "name": "",
          "type": "address"
        }
      ],
      "stateMutability": "view",
      "type": "function"
    },
    {
      "inputs": [],
      "name": "fundsOwner",
      "outputs": [
        {
          "internalType": "address",
          "name": "",
          "type": "address"
        }
      ],
      "stateMutability": "view",
      "type": "function"
    },
    {
      "inputs": [],
      "name": "ops",
      "outputs": [
        {
          "internalType": "contract IOps",
          "name": "",
          "type": "address"
        }
      ],
      "stateMutability": "view",
      "type": "function"
    },
    {
      "inputs": [],
      "name": "taskTreasury",
      "outputs": [
        {
          "internalType": "contract ITaskTreasuryUpgradable",
          "name": "",
          "type": "address"
        }
      ],
      "stateMutability": "view",
      "type": "function"
    },
    {
      "inputs": [
        {
          "internalType": "uint256",
          "name": "_amount",
          "type": "uint256"
        },
        {
          "internalType": "address",
          "name": "_token",
          "type": "address"
        }
      ],
      "name": "withdrawFunds",
      "outputs": [],
      "stateMutability": "nonpayable",
      "type": "function"
    },
    {
      "inputs": [
        {
          "internalType": "contract OrderExecutor",
          "name": "_orderExecutorAddress",
          "type": "address"
        }
      ],
      "name": "setOrderExecutor",
      "outputs": [],
      "stateMutability": "nonpayable",
      "type": "function"
    },
    {
      "inputs": [
        {
          "internalType": "address",
          "name": "_lendingVaultAddress",
          "type": "address"
        }
      ],
      "name": "setLendingVault",
      "outputs": [],
      "stateMutability": "nonpayable",
      "type": "function"
    },
    {
      "inputs": [
        {
          "internalType": "int256",
          "name": "price",
          "type": "int256"
        },
        {
          "internalType": "int256",
          "name": "amount",
          "type": "int256"
        },
        {
          "internalType": "address",
          "name": "_tokenIn",
          "type": "address"
        },
        {
          "internalType": "address",
          "name": "tokenOut",
          "type": "address"
        }
      ],
      "name": "createOrder",
      "outputs": [
        {
          "internalType": "int256",
          "name": "",
          "type": "int256"
        }
      ],
      "stateMutability": "nonpayable",
      "type": "function"
    },
    {
      "inputs": [
        {
          "internalType": "int256",
          "name": "_orderNonce",
          "type": "int256"
        }
      ],
      "name": "cancelOrder",
      "outputs": [],
      "stateMutability": "nonpayable",
      "type": "function"
    },
    {
      "inputs": [
        {
          "internalType": "int256",
          "name": "_orderNonce",
          "type": "int256"
        }
      ],
      "name": "setExecuted",
      "outputs": [],
      "stateMutability": "nonpayable",
      "type": "function"
    },
    {
      "inputs": [
        {
          "internalType": "int256",
          "name": "_orderNonce",
          "type": "int256"
        }
      ],
      "name": "getOrder",
      "outputs": [
        {
          "components": [
            {
              "internalType": "address",
              "name": "user",
              "type": "address"
            },
            {
              "internalType": "int256",
              "name": "price",
              "type": "int256"
            },
            {
              "internalType": "int256",
              "name": "amount",
              "type": "int256"
            },
            {
              "internalType": "address",
              "name": "tokenIn",
              "type": "address"
            },
            {
              "internalType": "address",
              "name": "tokenOut",
              "type": "address"
            },
            {
              "internalType": "bytes32",
              "name": "orderId",
              "type": "bytes32"
            },
            {
              "internalType": "bool",
              "name": "isExecuted",
              "type": "bool"
            }
          ],
          "internalType": "struct OrderDatas",
          "name": "",
          "type": "tuple"
        }
      ],
      "stateMutability": "view",
      "type": "function"
    },
    {
      "inputs": [],
      "name": "getExecutorAddress",
      "outputs": [
        {
          "internalType": "address",
          "name": "",
          "type": "address"
        }
      ],
      "stateMutability": "view",
      "type": "function"
    }
  ],
  "bytecode": "0x6101206040523480156200001257600080fd5b50604051620024823803806200248283398181016040528101906200003891906200036e565b803081308173ffffffffffffffffffffffffffffffffffffffff1660808173ffffffffffffffffffffffffffffffffffffffff16815250508173ffffffffffffffffffffffffffffffffffffffff1663573ea5756040518163ffffffff1660e01b8152600401602060405180830381865afa158015620000bc573d6000803e3d6000fd5b505050506040513d601f19601f82011682018060405250810190620000e29190620003e5565b73ffffffffffffffffffffffffffffffffffffffff1660c08173ffffffffffffffffffffffffffffffffffffffff168152505073c815db16d4be6ddf2685c201937905abf338f5d773ffffffffffffffffffffffffffffffffffffffff1663ded89a7c826040518263ffffffff1660e01b815260040162000164919062000428565b6040805180830381865afa15801562000181573d6000803e3d6000fd5b505050506040513d601f19601f82011682018060405250810190620001a7919062000482565b508073ffffffffffffffffffffffffffffffffffffffff1660a09073ffffffffffffffffffffffffffffffffffffffff168152505050508073ffffffffffffffffffffffffffffffffffffffff1660e08173ffffffffffffffffffffffffffffffffffffffff168152505060805173ffffffffffffffffffffffffffffffffffffffff1663e60a32136040518163ffffffff1660e01b8152600401602060405180830381865afa15801562000260573d6000803e3d6000fd5b505050506040513d601f19601f820116820180604052508101906200028691906200050e565b73ffffffffffffffffffffffffffffffffffffffff166101008173ffffffffffffffffffffffffffffffffffffffff1681525050505033600260006101000a81548173ffffffffffffffffffffffffffffffffffffffff021916908373ffffffffffffffffffffffffffffffffffffffff1602179055505062000540565b600080fd5b600073ffffffffffffffffffffffffffffffffffffffff82169050919050565b6000620003368262000309565b9050919050565b620003488162000329565b81146200035457600080fd5b50565b60008151905062000368816200033d565b92915050565b60006020828403121562000387576200038662000304565b5b6000620003978482850162000357565b91505092915050565b6000620003ad8262000309565b9050919050565b620003bf81620003a0565b8114620003cb57600080fd5b50565b600081519050620003df81620003b4565b92915050565b600060208284031215620003fe57620003fd62000304565b5b60006200040e84828501620003ce565b91505092915050565b620004228162000329565b82525050565b60006020820190506200043f600083018462000417565b92915050565b60008115159050919050565b6200045c8162000445565b81146200046857600080fd5b50565b6000815190506200047c8162000451565b92915050565b600080604083850312156200049c576200049b62000304565b5b6000620004ac8582860162000357565b9250506020620004bf858286016200046b565b9150509250929050565b6000620004d68262000329565b9050919050565b620004e881620004c9565b8114620004f457600080fd5b50565b6000815190506200050881620004dd565b92915050565b60006020828403121562000527576200052662000304565b5b60006200053784828501620004f7565b91505092915050565b60805160a05160c05160e05161010051611edd620005a560003960008181610d75015261102f015260008181610cc301528181610ce70152610db10152600050506000610ba101526000818161078f01528181610f8c01526110530152611edd6000f3fe608060405234801561001057600080fd5b50600436106100b45760003560e01c8063744bfe6111610071578063744bfe611461018f578063756677a1146101ab5780637de8239e146101c7578063e60a3213146101e3578063e70abe9214610201578063f51b69631461021f576100b4565b8063052b60b0146100b95780630dc74aa7146100e957806328f150eb14610119578063350157a814610137578063408a03d81461015557806346ee3c5914610171575b600080fd5b6100d360048036038101906100ce919061124f565b61023b565b6040516100e0919061138e565b60405180910390f35b61010360048036038101906100fe91906113d5565b6103a2565b604051610110919061144b565b60405180910390f35b610121610b9f565b60405161012e9190611475565b60405180910390f35b61013f610bc3565b60405161014c9190611475565b60405180910390f35b61016f600480360381019061016a9190611490565b610bed565b005b610179610cc1565b6040516101869190611475565b60405180910390f35b6101a960048036038101906101a491906114f3565b610ce5565b005b6101c560048036038101906101c09190611583565b610e26565b005b6101e160048036038101906101dc919061124f565b610efa565b005b6101eb61102d565b6040516101f8919061160f565b60405180910390f35b610209611051565b604051610216919061164b565b60405180910390f35b6102396004803603810190610234919061124f565b611075565b005b610243611190565b6000808381526020019081526020016000206040518060e00160405290816000820160009054906101000a900473ffffffffffffffffffffffffffffffffffffffff1673ffffffffffffffffffffffffffffffffffffffff1673ffffffffffffffffffffffffffffffffffffffff16815260200160018201548152602001600282015481526020016003820160009054906101000a900473ffffffffffffffffffffffffffffffffffffffff1673ffffffffffffffffffffffffffffffffffffffff1673ffffffffffffffffffffffffffffffffffffffff1681526020016004820160009054906101000a900473ffffffffffffffffffffffffffffffffffffffff1673ffffffffffffffffffffffffffffffffffffffff1673ffffffffffffffffffffffffffffffffffffffff168152602001600582015481526020016006820160009054906101000a900460ff1615151515815250509050919050565b6000808390508073ffffffffffffffffffffffffffffffffffffffff166323b872dd3330886040518463ffffffff1660e01b81526004016103e593929190611675565b6020604051808303816000875af1158015610404573d6000803e3d6000fd5b505050506040513d601f19601f8201168201806040525081019061042891906116d8565b506000600360009054906101000a900473ffffffffffffffffffffffffffffffffffffffff1673ffffffffffffffffffffffffffffffffffffffff1663ecd3020660015460405160240161047c919061144b565b604051602081830303815290604052915060e01b6020820180517bffffffffffffffffffffffffffffffffffffffffffffffffffffffff8381831617835250505050905060006040518060400160405280600367ffffffffffffffff8111156104e8576104e7611705565b5b6040519080825280602002602001820160405280156105165781602001602082028036833780820191505090505b508152602001600367ffffffffffffffff81111561053757610536611705565b5b60405190808252806020026020018201604052801561056a57816020015b60608152602001906001900390816105555790505b5081525090506000816000015160008151811061058a57610589611734565b5b602002602001019060038111156105a4576105a3611763565b5b908160038111156105b8576105b7611763565b5b81525050600281600001516001815181106105d6576105d5611734565b5b602002602001019060038111156105f0576105ef611763565b5b9081600381111561060457610603611763565b5b815250506003816000015160028151811061062257610621611734565b5b6020026020010190600381111561063c5761063b611763565b5b908160038111156106505761064f611763565b5b81525050610712600360009054906101000a900473ffffffffffffffffffffffffffffffffffffffff16600360009054906101000a900473ffffffffffffffffffffffffffffffffffffffff1673ffffffffffffffffffffffffffffffffffffffff1663c0d664966001546040516024016106cb919061144b565b604051602081830303815290604052915060e01b6020820180517bffffffffffffffffffffffffffffffffffffffffffffffffffffffff8381831617835250505050611136565b816020015160008151811061072a57610729611734565b5b602002602001018190525061073d611162565b816020015160018151811061075557610754611734565b5b6020026020010181905250610768611179565b81602001516002815181106107805761077f611734565b5b602002602001018190525060007f000000000000000000000000000000000000000000000000000000000000000073ffffffffffffffffffffffffffffffffffffffff16633323b467600360009054906101000a900473ffffffffffffffffffffffffffffffffffffffff16858573eeeeeeeeeeeeeeeeeeeeeeeeeeeeeeeeeeeeeeee6040518563ffffffff1660e01b81526004016108229493929190611a69565b6020604051808303816000875af1158015610841573d6000803e3d6000fd5b505050506040513d601f19601f820116820180604052508101906108659190611ae8565b90506040518060e001604052803373ffffffffffffffffffffffffffffffffffffffff1681526020018a81526020018981526020018873ffffffffffffffffffffffffffffffffffffffff1681526020018773ffffffffffffffffffffffffffffffffffffffff16815260200182815260200160001515815250600080600154815260200190815260200160002060008201518160000160006101000a81548173ffffffffffffffffffffffffffffffffffffffff021916908373ffffffffffffffffffffffffffffffffffffffff160217905550602082015181600101556040820151816002015560608201518160030160006101000a81548173ffffffffffffffffffffffffffffffffffffffff021916908373ffffffffffffffffffffffffffffffffffffffff16021790555060808201518160040160006101000a81548173ffffffffffffffffffffffffffffffffffffffff021916908373ffffffffffffffffffffffffffffffffffffffff16021790555060a0820151816005015560c08201518160060160006101000a81548160ff0219169083151502179055509050508373ffffffffffffffffffffffffffffffffffffffff1663a9059cbb600460009054906101000a900473ffffffffffffffffffffffffffffffffffffffff168a6040518363ffffffff1660e01b8152600401610a66929190611b15565b6020604051808303816000875af1158015610a85573d6000803e3d6000fd5b505050506040513d601f19601f82011682018060405250810190610aa991906116d8565b50600460009054906101000a900473ffffffffffffffffffffffffffffffffffffffff1673ffffffffffffffffffffffffffffffffffffffff1663dc93cfe3888a6001546040518463ffffffff1660e01b8152600401610b0b93929190611b3e565b600060405180830381600087803b158015610b2557600080fd5b505af1158015610b39573d6000803e3d6000fd5b5050505060016000815480929190610b5090611ba4565b91905055507f27c1db242c4ce64328b593bb9c62ed34bded6af419278eb2cf71fc91b67fb13e600154604051610b869190611c49565b60405180910390a1600154945050505050949350505050565b7f000000000000000000000000000000000000000000000000000000000000000081565b6000600360009054906101000a900473ffffffffffffffffffffffffffffffffffffffff16905090565b600260009054906101000a900473ffffffffffffffffffffffffffffffffffffffff1673ffffffffffffffffffffffffffffffffffffffff163373ffffffffffffffffffffffffffffffffffffffff1614610c7d576040517f08c379a0000000000000000000000000000000000000000000000000000000008152600401610c7490611cc3565b60405180910390fd5b80600460006101000a81548173ffffffffffffffffffffffffffffffffffffffff021916908373ffffffffffffffffffffffffffffffffffffffff16021790555050565b7f000000000000000000000000000000000000000000000000000000000000000081565b7f000000000000000000000000000000000000000000000000000000000000000073ffffffffffffffffffffffffffffffffffffffff163373ffffffffffffffffffffffffffffffffffffffff1614610d73576040517f08c379a0000000000000000000000000000000000000000000000000000000008152600401610d6a90611d55565b60405180910390fd5b7f000000000000000000000000000000000000000000000000000000000000000073ffffffffffffffffffffffffffffffffffffffff16631c20fadd7f000000000000000000000000000000000000000000000000000000000000000083856040518463ffffffff1660e01b8152600401610df093929190611d84565b600060405180830381600087803b158015610e0a57600080fd5b505af1158015610e1e573d6000803e3d6000fd5b505050505050565b600260009054906101000a900473ffffffffffffffffffffffffffffffffffffffff1673ffffffffffffffffffffffffffffffffffffffff163373ffffffffffffffffffffffffffffffffffffffff1614610eb6576040517f08c379a0000000000000000000000000000000000000000000000000000000008152600401610ead90611cc3565b60405180910390fd5b80600360006101000a81548173ffffffffffffffffffffffffffffffffffffffff021916908373ffffffffffffffffffffffffffffffffffffffff16021790555050565b600260009054906101000a900473ffffffffffffffffffffffffffffffffffffffff1673ffffffffffffffffffffffffffffffffffffffff163373ffffffffffffffffffffffffffffffffffffffff1614610f8a576040517f08c379a0000000000000000000000000000000000000000000000000000000008152600401610f8190611cc3565b60405180910390fd5b7f000000000000000000000000000000000000000000000000000000000000000073ffffffffffffffffffffffffffffffffffffffff1663ee8ca3b5600080848152602001908152602001600020600501546040518263ffffffff1660e01b8152600401610ff89190611dca565b600060405180830381600087803b15801561101257600080fd5b505af1158015611026573d6000803e3d6000fd5b5050505050565b7f000000000000000000000000000000000000000000000000000000000000000081565b7f000000000000000000000000000000000000000000000000000000000000000081565b600360009054906101000a900473ffffffffffffffffffffffffffffffffffffffff1673ffffffffffffffffffffffffffffffffffffffff163373ffffffffffffffffffffffffffffffffffffffff1614611105576040517f08c379a00000000000000000000000000000000000000000000000000000000081526004016110fc90611e57565b60405180910390fd5b600160008083815260200190815260200160002060060160006101000a81548160ff02191690831515021790555050565b6060828260405160200161114b929190611e77565b604051602081830303815290604052905092915050565b606060405180602001604052806000815250905090565b606060405180602001604052806000815250905090565b6040518060e00160405280600073ffffffffffffffffffffffffffffffffffffffff1681526020016000815260200160008152602001600073ffffffffffffffffffffffffffffffffffffffff168152602001600073ffffffffffffffffffffffffffffffffffffffff168152602001600080191681526020016000151581525090565b600080fd5b6000819050919050565b61122c81611219565b811461123757600080fd5b50565b60008135905061124981611223565b92915050565b60006020828403121561126557611264611214565b5b60006112738482850161123a565b91505092915050565b600073ffffffffffffffffffffffffffffffffffffffff82169050919050565b60006112a78261127c565b9050919050565b6112b78161129c565b82525050565b6112c681611219565b82525050565b6000819050919050565b6112df816112cc565b82525050565b60008115159050919050565b6112fa816112e5565b82525050565b60e08201600082015161131660008501826112ae565b50602082015161132960208501826112bd565b50604082015161133c60408501826112bd565b50606082015161134f60608501826112ae565b50608082015161136260808501826112ae565b5060a082015161137560a08501826112d6565b5060c082015161138860c08501826112f1565b50505050565b600060e0820190506113a36000830184611300565b92915050565b6113b28161129c565b81146113bd57600080fd5b50565b6000813590506113cf816113a9565b92915050565b600080600080608085870312156113ef576113ee611214565b5b60006113fd8782880161123a565b945050602061140e8782880161123a565b935050604061141f878288016113c0565b9250506060611430878288016113c0565b91505092959194509250565b61144581611219565b82525050565b6000602082019050611460600083018461143c565b92915050565b61146f8161129c565b82525050565b600060208201905061148a6000830184611466565b92915050565b6000602082840312156114a6576114a5611214565b5b60006114b4848285016113c0565b91505092915050565b6000819050919050565b6114d0816114bd565b81146114db57600080fd5b50565b6000813590506114ed816114c7565b92915050565b6000806040838503121561150a57611509611214565b5b6000611518858286016114de565b9250506020611529858286016113c0565b9150509250929050565b600061153e8261127c565b9050919050565b600061155082611533565b9050919050565b61156081611545565b811461156b57600080fd5b50565b60008135905061157d81611557565b92915050565b60006020828403121561159957611598611214565b5b60006115a78482850161156e565b91505092915050565b6000819050919050565b60006115d56115d06115cb8461127c565b6115b0565b61127c565b9050919050565b60006115e7826115ba565b9050919050565b60006115f9826115dc565b9050919050565b611609816115ee565b82525050565b60006020820190506116246000830184611600565b92915050565b6000611635826115dc565b9050919050565b6116458161162a565b82525050565b6000602082019050611660600083018461163c565b92915050565b61166f816114bd565b82525050565b600060608201905061168a6000830186611466565b6116976020830185611466565b6116a46040830184611666565b949350505050565b6116b5816112e5565b81146116c057600080fd5b50565b6000815190506116d2816116ac565b92915050565b6000602082840312156116ee576116ed611214565b5b60006116fc848285016116c3565b91505092915050565b7f4e487b7100000000000000000000000000000000000000000000000000000000600052604160045260246000fd5b7f4e487b7100000000000000000000000000000000000000000000000000000000600052603260045260246000fd5b7f4e487b7100000000000000000000000000000000000000000000000000000000600052602160045260246000fd5b600081519050919050565b600082825260208201905092915050565b60005b838110156117cc5780820151818401526020810190506117b1565b60008484015250505050565b6000601f19601f8301169050919050565b60006117f482611792565b6117fe818561179d565b935061180e8185602086016117ae565b611817816117d8565b840191505092915050565b600081519050919050565b600082825260208201905092915050565b6000819050602082019050919050565b6004811061185f5761185e611763565b5b50565b60008190506118708261184e565b919050565b600061188082611862565b9050919050565b61189081611875565b82525050565b60006118a28383611887565b60208301905092915050565b6000602082019050919050565b60006118c682611822565b6118d0818561182d565b93506118db8361183e565b8060005b8381101561190c5781516118f38882611896565b97506118fe836118ae565b9250506001810190506118df565b5085935050505092915050565b600081519050919050565b600082825260208201905092915050565b6000819050602082019050919050565b600082825260208201905092915050565b600061196182611792565b61196b8185611945565b935061197b8185602086016117ae565b611984816117d8565b840191505092915050565b600061199b8383611956565b905092915050565b6000602082019050919050565b60006119bb82611919565b6119c58185611924565b9350836020820285016119d785611935565b8060005b85811015611a1357848403895281516119f4858261198f565b94506119ff836119a3565b925060208a019950506001810190506119db565b50829750879550505050505092915050565b60006040830160008301518482036000860152611a4282826118bb565b91505060208301518482036020860152611a5c82826119b0565b9150508091505092915050565b6000608082019050611a7e6000830187611466565b8181036020830152611a9081866117e9565b90508181036040830152611aa48185611a25565b9050611ab36060830184611466565b95945050505050565b611ac5816112cc565b8114611ad057600080fd5b50565b600081519050611ae281611abc565b92915050565b600060208284031215611afe57611afd611214565b5b6000611b0c84828501611ad3565b91505092915050565b6000604082019050611b2a6000830185611466565b611b376020830184611666565b9392505050565b6000606082019050611b536000830186611466565b611b60602083018561143c565b611b6d604083018461143c565b949350505050565b7f4e487b7100000000000000000000000000000000000000000000000000000000600052601160045260246000fd5b6000611baf82611219565b91507f7fffffffffffffffffffffffffffffffffffffffffffffffffffffffffffffff8203611be157611be0611b75565b5b600182019050919050565b600082825260208201905092915050565b7f6f726465724e6f6e636500000000000000000000000000000000000000000000600082015250565b6000611c33600a83611bec565b9150611c3e82611bfd565b602082019050919050565b60006040820190508181036000830152611c6281611c26565b9050611c71602083018461143c565b92915050565b7f4e6f7420616c6c6f77656420616464726573732e000000000000000000000000600082015250565b6000611cad601483611bec565b9150611cb882611c77565b602082019050919050565b60006020820190508181036000830152611cdc81611ca0565b9050919050565b7f4f6e6c792066756e6473206f776e65722063616e20776974686472617720667560008201527f6e64730000000000000000000000000000000000000000000000000000000000602082015250565b6000611d3f602383611bec565b9150611d4a82611ce3565b604082019050919050565b60006020820190508181036000830152611d6e81611d32565b9050919050565b611d7e81611533565b82525050565b6000606082019050611d996000830186611d75565b611da66020830185611466565b611db36040830184611666565b949350505050565b611dc4816112cc565b82525050565b6000602082019050611ddf6000830184611dbb565b92915050565b7f4f6e6c7920746865206578656375746f722063616e2073657420746865206f7260008201527f6465722061732065786563757465640000000000000000000000000000000000602082015250565b6000611e41602f83611bec565b9150611e4c82611de5565b604082019050919050565b60006020820190508181036000830152611e7081611e34565b9050919050565b6000604082019050611e8c6000830185611466565b8181036020830152611e9e81846117e9565b9050939250505056fea2646970667358221220fba3b3df29c2331eb5caff8d9131bfd5e29b015134f215bf85271467b13ebaeb64736f6c63430008130033",
  "immutableReferences": {
    "1638": [
      {
        "length": 32,
        "start": 1935
      },
      {
        "length": 32,
        "start": 3980
      },
      {
        "length": 32,
        "start": 4179
      }
    ],
    "1640": [
      {
        "length": 32,
        "start": 2977
      }
    ],
    "1762": [
      {
        "length": 32,
        "start": 3267
      },
      {
        "length": 32,
        "start": 3303
      },
      {
        "length": 32,
        "start": 3505
      }
    ],
    "1765": [
      {
        "length": 32,
        "start": 3445
      },
      {
        "length": 32,
        "start": 4143
      }
    ]
  },
  "source": "// SPDX-License-Identifier: UNLICENSED\npragma solidity ^0.8.19;\n\nimport \"./gelato/Types.sol\";\nimport \"./OrderExecutor.sol\";\nimport \"./gelato/OpsTaskCreator.sol\";\nimport './LendingVault.sol';\n\nstruct OrderDatas {\n    address user;\n    int256 price;\n    int256 amount;\n    address tokenIn;\n    address tokenOut;\n    bytes32 orderId;\n    bool isExecuted;\n}\n\ncontract OrderBook is OpsTaskCreator {\n    mapping (int => OrderDatas) private orders; // returns order data\n    int private orderNonce;\n    address private admin;\n    OrderExecutor private orderExecutor;\n    LendingVault private lendingVault;\n    event orderCreated(string, int256);\n\n    modifier onlyAdmin {\n        require(msg.sender == admin, \"Not allowed address.\");\n        _; // Continue the execution of the function called\n    }\n\n    constructor(address _opsAddress) OpsTaskCreator(_opsAddress, address(this)) {\n        admin = msg.sender;\n    }\n\n    function setOrderExecutor(OrderExecutor _orderExecutorAddress) public onlyAdmin {\n        orderExecutor = _orderExecutorAddress;\n    }\n\n    function setLendingVault(address _lendingVaultAddress) public onlyAdmin {\n        lendingVault = LendingVault(_lendingVaultAddress);\n    } \n\n    function createOrder(int price, int amount, address _tokenIn, address tokenOut) external returns (int) {\n        IERC20 TokenIn = IERC20(_tokenIn);\n        \n        // The user needs to approve this contract for the appropriate amount\n        TokenIn.transferFrom(msg.sender, address(this), uint256(amount));\n\n        bytes memory execData = abi.encodeCall(orderExecutor.executeOrder, (orderNonce));\n\n        ModuleData memory moduleData = ModuleData({\n            modules: new Module[](3),\n            args: new bytes[](3)\n        });\n\n        moduleData.modules[0] = Module.RESOLVER;\n        moduleData.modules[1] = Module.PROXY;\n        moduleData.modules[2] = Module.SINGLE_EXEC;\n\n        moduleData.args[0] = _resolverModuleArg(address(orderExecutor), abi.encodeCall(orderExecutor.checker, (orderNonce)));\n        moduleData.args[1] = _proxyModuleArg();\n        moduleData.args[2] = _singleExecModuleArg();\n\n        bytes32 orderId = ops.createTask(\n            address(orderExecutor), // contract to execute\n            execData, // function to execute\n            moduleData,\n            0xEeeeeEeeeEeEeeEeEeEeeEEEeeeeEeeeeeeeEEeE\n        );\n\n        orders[orderNonce] = OrderDatas(msg.sender, price, amount, _tokenIn, tokenOut, orderId, false);\n\n        // Transfer tokens to the vault\n        TokenIn.transfer(address(lendingVault), uint256(amount)); // giving the money to the lending vault\n        \n        lendingVault.deposit(_tokenIn, amount, orderNonce); // depositing liquidity into the vault\n\n        orderNonce++;\n\n        emit orderCreated(\"orderNonce\", orderNonce);\n\n        return orderNonce;\n    }\n\n    function cancelOrder(int _orderNonce) external onlyAdmin {\n        ops.cancelTask(orders[_orderNonce].orderId);\n    }\n    \n    function setExecuted(int _orderNonce) external {\n        require(msg.sender == address(orderExecutor), \"Only the executor can set the order as executed\");\n        orders[_orderNonce].isExecuted = true;\n    }\n\n    function getOrder(int _orderNonce) public view returns (OrderDatas memory) {\n        return orders[_orderNonce];\n    }\n\n    function getExecutorAddress() public view returns (address) {\n        return address(orderExecutor);\n    }\n\n}\n\n\n",
  "sourcePath": "/Users/blabla/Documents/gelato_test/contracts/OrderBook.sol",
  "compiler": {
    "name": "solc",
    "version": "0.8.19+commit.7dd6d404.Emscripten.clang"
  },
  "schemaVersion": "3.4.11",
  "updatedAt": "2023-03-05T14:29:32.158Z",
  "devdoc": {
    "kind": "dev",
    "methods": {
      "withdrawFunds(uint256,address)": {
        "details": "Withdraw funds from this contract's Gelato balance to fundsOwner."
      }
    },
    "version": 1
  },
  "userdoc": {
    "kind": "user",
    "methods": {},
    "version": 1
  }
}